:020000040800F2
:100000006806002065010008710B0008070200085F
:1000100000000000000000000000000000000000E0
:10002000000000000000000000000000750B000848
:100030000000000000000000730B0008770B0008B0
:100040007701000800000000770100087701000830
:1000500077010008770100087701000877010008A0
:100060000000000077010008770100087701000810
:100070007701000877010008770100080000000000
:100080007701000800000000000000007701000870
:1000900000000000770100087701000877010008E0
:1000A0007701000877010008770100087701000850
:1000B00077010008000000000000000000000000C0
:1000C00000F002F800F03EF80CA030C80838241800
:1000D0002D18671EA246AB4654465D46AC4201D180
:1000E00000F030F87E460F3EB6460FCC0126334274
:1000F00000D0FB1A3343A246AB461847C00D0000A0
:10010000E00D0000103A02D378C878C1FAD852073F
:1001100001D330C830C101D504680C6070470000BD
:100120000023002400250026103A01D378C1FBD813
:10013000520700D330C100D50B6070471FB51FBDFB
:1001400010B510BD00F02DF81146FFF7F7FF00F0D5
:100150008DFD00F045F803B4FFF7F2FF03BC00F09B
:100160004BF800000748804707480047FEE7FEE7D6
:10017000FEE7FEE7FEE7FEE704480549054A064BB1
:1001800070470000690C0008C100000868000020EA
:10019000680600206802002068020020704770474F
:1001A0007047754600F024F8AE4605006946534690
:1001B000C008C000854618B020B5FFF7DDFF60BC61
:1001C000B64600260027C0C5C0C5C0C5C0C5C0C54D
:1001D000C0C5C0C5C0C5403D490849008D467047EF
:1001E00010B50446C046C0462046FFF7B4FF10BD18
:1001F000004870470800002001491820ABBEFEE708
:10020000260002007047FEE78268D20712D1C2685A
:10021000094B13404A681A438B681343CA681A4350
:10022000C26003229207036993430968194301617D
:100230000020704701207047C73FFFFFF0B5C2683C
:10024000C2688268D20713D101225305C2689202A4
:10025000134A0FD54C68F02C0CD1C46814400D68BB
:1002600025430E460C3654CE2A43224332430CE03B
:100270000120F0BDC46814400D6825430F460837BF
:10028000D4CF2A43224332433A43C260C468002297
:100290001C4203D04968836A0B4383621046F0BD59
:1002A0003CC2FEFFF0B583B00B68002B5AD0002291
:1002B0000191029016E0764376430F2171438C43FF
:1002C00077432743029EF750019D009B696848438E
:1002D00031681940014331602B682946521C1C4685
:1002E000D4403FD0012494401C40F7D04868431EBE
:1002F000022B0090204615D260438F6847430325A8
:10030000454302998E68AE433E4302998E6001993F
:10031000CE68664302994F68A74337430199029B11
:100320005F6002E0604303254543EB430D460E69E1
:1003300046430299CF681F4037430299CF60029E1F
:1003400000990229C2D10093260A01D0242300E09B
:10035000202301994F690299CC58002EABD1064653
:100360004643AAE7002003B0F0BD000080B57D2120
:10037000C90000F0A7FC401E0349486000208860C7
:100380000520086080BDC04610E000E0014908601B
:100390007047C04600000020F0B5CA6A1C4B1340ED
:1003A000012214074D69A5431D438B692B4370C976
:1003B000184F2F40184D35400E782E433E43174DB1
:1003C000254035434C68164E26402E434D88154C2B
:1003D0002C4034431C43E74B0C39984203D023464E
:1003E00043640020F0BD104B1C4023231E06CD6942
:1003F0000B6A4F6A896AB743274311246406A543F1
:100400003D43520793432B430B4343640020F0BD0D
:10041000FFFFF0EFFF87F0EFFF83F0EFFF8FF0EFCC
:10042000FFBFF0EFFF9F0000FFFF0FDC10B5046877
:10043000D04A904202D01C4B98420FD170239C436B
:100440004B682343194CA0420CDD904210D0CA4C9B
:10045000A0420DD0C94CA0420AD023E02346134C41
:10046000A042F2DC104CA04202D0114CA04219D1A3
:1004700003242402A343CC681C4304608B68C3623A
:100480000B888362904205D0BB4A904202D0BB4A9F
:10049000904201D109690163416901220A43426125
:1004A000002010BD1C46E8E700040040FF2B01407F
:1004B00000200040F0B584B00123AD4CA1424CDCDB
:1004C000012900D180E0102900D1CEE001242402CE
:1004D000A14276D1016AA1430162AD49491C136969
:1004E0001B020B40032102910902046A8C431C4346
:1004F0001168039153681B0223434568C4699D4FEB
:10050000B84205D09C4FB84202D09C4FB84219D196
:1005100002990F03BD43566901969669D769009702
:1005200037019A4E3E402E43009D6D0135438902AE
:100530008B439849091D019EB6020E401E439168E7
:100540008B02334345608F490C4003990C43C461CF
:10055000D168C1630362002333E001242503A9426B
:1005600069D02504A94200D1BCE02505A94228D1C3
:10057000016AA9430162016A166853680393156909
:10058000476D7C4B984205D07B4B984202D07B4B09
:10059000984206D1A30444689C4393699B02234379
:1005A0004360774B1F4033023B434365D268C265CB
:1005B0000322120591436A0852050A43039909056B
:1005C000BAE0184604B0F0BD0126F143036A0B40BF
:1005D000036213690B40046A0327BC431C43116880
:1005E00003915168214345688469624B984205D064
:1005F000614B984202D0614B984213D13B029D431C
:100600007302566902969769D6699F432F43750016
:100610003D430C239943029B5B08DB000B4391682D
:10062000890019434560574B1C40039B1C43846160
:10063000D268426397E0016AA9430162016A436894
:1006400016685568039515690295C769494DA84212
:1006500005D0494DA84202D0E54DA8426ED1A40371
:10066000A3439469A4011C4369E0016A10239943E0
:100670000162016A3023994313695B085C010C43F2
:10068000176851680901214345688369394EB042B2
:1006900005D0394EB04202D0D54EB04219D1032612
:1006A000B602B543546903943E469769D4690294EF
:1006B000BF00384C3C4037462C43029DED0025439B
:1006C000C024A143039C6408E4010C4391688901A0
:1006D000214345602C4C23403C021C438461D2687A
:1006E000826340E0274D7335016A29400162016A47
:1006F0001668536803931469476DF84B984205D008
:100700001D4B984202D0BA4B984205D143682B400A
:1007100095692D021D4345601A4BDB1C1F40374372
:100720004765836DD2688265032212049143620893
:1007300052040A4303990904114314E01C4644601F
:10074000114B1F4033023B43C361D2680264032252
:10075000120391430D4A1032029B1B0313400B43BB
:1007600003990903194301620023184604B0F0BD40
:10077000FF0F0000002C01400048014000440140F0
:10078000FF8FFFFE8CFFFEFFFF8CFFFEF0DFFFFF01
:10079000FFFDFFFFFCF7FFFFF0B593B000270E97BA
:1007A0000D970C970B970A97099708970797069745
:1007B000059701252805C749CA680243CA60CA6867
:1007C00002400F920F980868284308600868284084
:1007D0000F900320019004901020029003900F9836
:1007E0000520000703A9FFF75DFD129711971097E9
:1007F000A8070F90394C0FA92046FFF705FD6805A3
:10080000E1680143E1606E032068304208D120684E
:10081000304205D12068304202D120683042F3D006
:100820002660F0200A900B970C970D970E97AF0259
:100830003846C030099009A92046FFF7FFFCE8437D
:10084000216901402161690722698A432261019976
:100850008902E2688A43D119E160616906220A438C
:1008600002406261606960210143029881436161D5
:10087000616804208143616061680822914361607E
:10088000A168174A0A4029075118A160E168154A72
:100890000A40432189055118E160216A124A0A4041
:1008A0002262616880220A436260A16A01430B20D0
:1008B0008143A1622068304208D12068304205D1CE
:1008C0002068304202D120683042F3D026602803ED
:1008D00061698143616113B0F0BDC04600240140ED
:1008E000E8FFFF6FFFFF3F8300F000F080B588B0A6
:1008F000002106917748026802231A4302600268C9
:100900001A400792079A0122029203681343036078
:1009100000681040079007980520000708228262AF
:10092000059104910391019201A9FFF7BBFC08B066
:1009300080BDC046F0B5A1B000261B96119610965A
:100940000F960E960D960C960B960A96012460044F
:10095000604AD1680143D1601BA908270F80D26883
:100960000240139213981F961E9603201D901C960A
:100970001F4D2846FFF75AFD286880210143296052
:10098000A8693843A86117966420169015961496A6
:10099000189619961A966020139013AA2846214695
:1009A000FFF788FDA86904210143A96107A9CE8149
:1009B0000E7307960896099612960C9660030B9094
:1009C0002846FFF7E9FC434A1068022108431060FB
:1009D0001068084020900691059602A852C0200297
:1009E000019020983F4801A9FFF75CFC21B0F0BDC1
:1009F00000440140F0B5A1B000251B950A950126E1
:100A0000F702344AD0683843D0601BA932480880C6
:100A1000D068384013901F951E9563201D901C953B
:100A200013982E4C2046FFF701FD2068802100918D
:100A300008432060A0682A490140A160A0693843AA
:100A4000A061179564201690159514951895199521
:100A50001A9560201390102113AA2046FFF72AFD53
:100A6000B002A1698143A161606870218843606020
:100A70000F200005616881436160A0680099884388
:100A8000A06007A9CD810D73129511951095700680
:100A90000F900E950D950C9570030B90079508958A
:100AA00009952046FFF778FC02200290094A116858
:100AB0000143116011680140209106960595049547
:100AC0000395082001902098064801A9FFF7EAFB4A
:100AD00021B0F0BD34100240CF020000002C0140D4
:100AE000F8BFFEFF0004005070B586B000200490EF
:100AF0000390029001900090704801680222114317
:100B00000160694601260E80006810400590144877
:100B100002900598134D2C46083C2046FFF786FCB2
:100B20008020C04321680140216029680E4A0A40A4
:100B30002A6029680D4A0A402A6069684022914368
:100B40006960B1036A688A436A60291F0A68702372
:100B50009A430A6029680140296006B070BDC0460A
:100B6000007DF0FF080400408FFFCFFFF8FFFEFF7D
:100B7000FEE770477047704770B5364A106802212B
:100B80000843052398431060146807200440022C92
:100B90000BD014680440022C07D014680440022CC7
:100BA00003D014680440022CEED1012425022A4A05
:100BB00016682E431660A50216682E4208D11668E4
:100BC0002E4205D116682E4202D116682E42F3D06D
:100BD000D568224E2E40224D7519D560250616681F
:100BE0002E4316602507D6682E43D6606406156826
:100BF000254208D11568254205D11568254202D144
:100C000015682542F3D00F2424029568A54395600A
:100C100094680C439C439460936838210B40102BDC
:100C20000BD093680B40102B07D093680B40102B10
:100C300003D093680B40102BEED1000391688143E1
:100C40009160084C2046FFF791FB2046FFF79EFB82
:100C500070BDC04600200240001002408C80FF1F83
:100C6000020800200090D0037047000082B01348B3
:100C7000416801221143416041681140009100998F
:100C8000110702680A430260006808400190019859
:100C9000FF2000060A490A688243032080071018D3
:100CA0000860FFF769FFFFF721FEFFF775FDFFF70B
:100CB00041FEFFF79FFEFFF717FFFEE73C100240E3
:100CC00020ED00E043088B421AD3002203098B4237
:100CD00079D3030A8B425ED3030B8B4242D3030CBE
:100CE0008B4227D30902FF2212BA030C8B4202D394
:100CF0001212090203D0030B8B4233D31AE0D3E064
:100D0000411A8041401C704703460B4371D443088D
:100D10008B42F5D3002203098B4254D3030A8B4242
:100D200039D3030B8B421DD3030C8B4202D3944661
:100D30006EE0090AC30B8B4201D3CB03C01A5241A8
:100D4000830B8B4201D38B03C01A5241430B8B425E
:100D500001D34B03C01A5241030B8B4201D30B0347
:100D6000C01A5241C30A8B4201D3CB02C01A52416E
:100D7000830A8B4201D38B02C01A5241430A8B4231
:100D800001D34B02C01A5241030A8B4201D30B021A
:100D9000C01A5241CDD2C3098B4201D3CB01C01A34
:100DA000524183098B4201D38B01C01A524143093E
:100DB0008B4201D34B01C01A524103098B4201D32C
:100DC0000B01C01A5241C3088B4201D3CB00C01A99
:100DD000524183088B4201D38B00C01A5241430811
:100DE0008B4201D34B00C01A5241411A52411000AC
:100DF0007047CA0F00D04942031000D3404253400D
:100E000000229C4603098B422DD3030A8B4212D346
:100E10008901FC2212BA030A8B420CD38901921178
:100E20008B4208D3890192118B4204D3890137D0B8
:100E3000921100E08909C3098B4201D3CB01C01A8A
:100E4000524183098B4201D38B01C01A524143099D
:100E50008B4201D34B01C01A524103098B4201D38B
:100E60000B01C01A5241C3088B4201D3CB00C01AF8
:100E7000524183088B4201D38B00C01A5241D9D210
:100E800043088B4201D34B00C01A5241411A00D291
:100E900001465241104663465B1000D34042704702
:100EA00063465B1000D3404201B50021004201D0EF
:100EB000C9430846C046C04602BD0000E00E000817
:100EC000000000200800000004010008E80E0008EF
:100ED000080000206006000020010008000000005B
:080EE0000024F40000000000F2
:04000005080000C12E
:00000001FF
