:020000040800F2
:10000000C0080020D5000008111C0008790900086C
:1000100000000000000000000000000000000000E0
:100020000000000000000000000000009927000808
:100030000000000000000000E12000089B270008ED
:10004000E700000800000000E7000008E7000008E3
:10005000E7000008E7000008E7000008E7000008E4
:1000600000000000E7000008E7000008E7000008C3
:1000700071080008E7000008E70000080000000021
:10008000E70000080000000000000000E700000892
:1000900000000000E7000008E7000008E700000893
:1000A000E7000008E7000008E7000008E700000894
:1000B000E700000800000000000000000000000051
:1000C0000348854600F02EFB004800475D300008DD
:1000D000C00800200448804704480047FEE7FEE7C8
:1000E000FEE7FEE7FEE7FEE721280008C100000862
:1000F000002800DA4042704703460B439B0703D0B9
:1001000009E008C9121F08C0042AFAD203E00B78DC
:100110000370401C491C521EF9D27047D2B201E054
:100120000270401C491EFBD270470022F6E710B552
:1001300013460A4604461946FFF7F0FF204610BD55
:10014000024670B54A40D30FDB0740002DD04A006D
:100150002AD0010E140E000212020919400A520A96
:100160008418E50104465443000A120A2E04504341
:10017000A4194219200CC543AA18120C0125AD037D
:10018000521C521912047F39240400D0521C10430F
:1001900001D44000491EC2B20C06C0092018401C00
:1001A0004008802A02D003E0002070BD40084000D3
:1001B000002900DA0020184370BDC20F4100400240
:1001C0000123400ADB05D207090EC0187F2901DA96
:1001D00000207047962903DC9623591AC84001E095
:1001E00096398840002AF4D040427047CB0FDB0795
:1001F000490010B5490802460A4307D00A0D0724F2
:100200000903E401090B121B002A01DC002010BDC8
:10021000C900440F0C43C100E018D205801800F05B
:1002200079F810BD70B50446002903D000202022C3
:10023000012310E0002801D00020C043C046C04682
:100240000DE02546D5408D4205D30D469540641BF3
:100250001D46954040191546521E002DF1DC2146E1
:1002600070BD000070B5002504462E46002911D04F
:10027000002C01DA01254442002901DA0126494215
:100280002046FFF7CFFFB54200D04042002D00D0FE
:10029000494270BD002C02DA0121C90702E0002C9E
:1002A00000DD03490846C046C046214670BD000037
:1002B000FFFFFF7FF0B51FB40646002082B0054661
:1002C0004024019100901BE0019922460F463046E0
:1002D00000F04AFA049A059B801A994110D31046FF
:1002E0001946224600F030FA361A8F41019722460D
:1002F00001200021009F00F027FA38184D4100909E
:100300002046641E0028DFDC019B00982946324607
:1003100007B0F0BD002904DA401C490001D14008B3
:100320004000704770B40024050C05D1102400046F
:1003300002D1002921D01124050E01D10002083478
:10034000050F01D10001241D850F01D18000A41CDF
:10035000002801DB4000641C002908D020252E1B4A
:100360000D46F540A14000D0012129430843010674
:100370001B1B000ADB1D02D5002070BC7047DB058B
:10038000181880180029F8DA401C4900F5D170BC13
:100390004008400070470000F0B507460846584046
:1003A00087B0C00F049048000E4659004008490825
:1003B000BC1A884105D2384631461E4617460B46C0
:1003C00002465800400810434CD0300D03904005C1
:1003D0005900400D490D0590401A0290402872DAEC
:1003E00018030121000B09050843019004980092AD
:1003F000002805D0019952420020884100920190C6
:10040000029840210A1A0199009800F09DF90546CA
:100410000C466B4607CB00F0B8F9C0197141039A3E
:100420000E0D0023D71756401A467A40164344D083
:10043000049A002A2DD0029A012A039A15DC12058B
:10044000C01A914101263605001C7141D20F059E4C
:10045000D2070093019202962A46234600F0B5F98E
:1004600007B0F0BD38463146FAE71605224A0F4676
:10047000B218C01AB74101210905001C4F410018EC
:100480007F41114618187941E20F10436D196441FC
:1004900013E0E2076D0815436408C2071443039A8A
:1004A00001261205C01A91413605001C7141CE0784
:1004B000400830434908C01851412A46234600F0FD
:1004C00077F9CDE7FFE7049801224000C117121A1F
:1004D00000238B4104983146C417381AA141EEE736
:1004E00030B40124E407634030BC55E730B4012444
:1004F000E407614030BC4FE70000E0FFF0B51FB4F7
:1005000088B00B990998002448400999C00F490008
:1005100049080991C0070B990090490049080B91BF
:1005200009990898A64608431CD00B990A980843D5
:1005300018D0099801244000420D4800410D099847
:1005400024050003000B204309900B980003000BC7
:1005500020430B9050181C4940180022019014466B
:10056000104605E0002001460DB0F0BD032801DA79
:10057000034600E003239C46C11A0AAE0AE05F006E
:1005800008ADED5B4F00F75B7D430027AA187C4167
:10059000491C5B1E6145F2DD410004AB5A52210447
:1005A000120C0A43240C401C0828DFDB019802903F
:1005B0000099704601910090059B049A079906984E
:1005C00000F003F9D0E700000DFCFFFFF0B50C468A
:1005D0005C4085B0E40FE40703944C0000266408F7
:1005E00059009446490802460296224321D06246A9
:1005F0000A431ED06200570D4A000E032303550D17
:10060000012402462C492405781B1B0B360B40188D
:1006100023432643614600901C46501AB44103D33D
:100620000098401C009002E0921800985B4100285E
:1006300003DA0020014605B0F0BD002001210905C4
:100640000746864611E064461D46141BB54106D395
:100650006546521BB341744607430C43A646CD077B
:1006600040084908284392185B4105460D43EAD1EA
:100670001046184313D06046194650407140084355
:1006800006D06046101AB34106D20122002306E0CC
:1006900000220123DB0702E00122D243531000981D
:1006A00074460105381C6141029C039D0019694193
:1006B00000F07EF8BFE70000FD0300004A000903D8
:1006C0000123090B1B0519430A4B10B5520D9A4221
:1006D00002DA0020014610BD064B34339A4203DC97
:1006E0009A1A00F041F810BD034BD21800F02CF814
:1006F00010BD0000FF030000CDFBFFFF10B5002977
:1007000004DB0124E40740428C412146002B04DB3A
:100710001C460123DB075242A341994200D190427B
:1007200010BD0000064C0125064E05E0E36807CC2D
:100730002B430C3C98471034B442F7D3FFF7C4FC6A
:10074000543A0008743A000810B5202A04DB014628
:10075000203A9140002010BD914020239C1A03466E
:10076000E3401943904010BD10B5202A04DB084631
:10077000203AD040002110BD0B46D340D040202469
:10078000A21A91400843194610BD10B5202A06DB75
:10079000CB170846203A1041C1170B4306E00B4621
:1007A0001341D0402024A21A91400843194610BD9D
:1007B00010B5002B08DA0024401C614192185B41FF
:1007C0001A4301D14008400010BDF0B51FB482B0FB
:1007D00005460C0003D0084602F08CFC02E002F053
:1007E00089FC20300246009021462846FFF7ACFFE6
:1007F000049B059A04460F4618431143084314D03E
:10080000184610431BD0009840210A1A1846059933
:10081000FFF7AAFF05460E46009A05990498FFF7D0
:1008200093FF084305D0012004E02046394607B075
:10083000F0BD0020C11705430E432C4337430099F8
:100840000E986305401A7905E40A00220C43FD0A5C
:100850000A3002D500200146E9E701051019694177
:100860000C9C0D9D00196941FFF7A2FFDFE7000016
:1008700080B53E4800F01CF900280CD0FFE701F0DD
:10088000E1FF02F001F8394800F0BCF901460B48DD
:1008900002F020FC0EE0354800F01CF9002808D0DA
:1008A000FFE7324800F0AEF90146034802F012FCBF
:1008B000FFE7FFE780BDC046463A0008373A000828
:1008C00080B584B0002003900290284800F015F90C
:1008D000002848D1FFE7254800F0A4F82448006824
:1008E0002449FFF79FFC0146142048430A21FFF7E3
:1008F00099FC0390FFE70398002804D0FFE70398D2
:10090000401E0390F7E71948019000F006F90146F0
:1009100001980291002100F07FF9019800F040FA5F
:10092000FFE7124800F0DFF8002801D0FFE7F8E702
:1009300002990E4800F070F920200390FFE7039819
:10094000002804D0FFE70398401E0390F7E707480C
:1009500000F052F8FFE7054800F0A2F8002801D1A6
:10096000FFE7F8E7FFE704B080BDC0460024014080
:1009700004000020400D0300FFE7FEE781B0009077
:10098000009901204003086001B0704785B00490D1
:100990000391029201930498039A03210B051146D7
:1009A0001940090D01235B051A40520D8918890071
:1009B00040182030009000980068054908400299CE
:1009C0000904019A114308430099086005B0704773
:1009D00000F000F081B00090009948680422904334
:1009E000486001B0704781B00090009948680822C3
:1009F0009043486001B0704781B0009000988068D3
:100A0000A9490840401C0099886001B07047C04661
:100A100081B000900099486880221043486001B07E
:100A20007047000081B0009000988068012109079C
:100A300008439D4908400099886001B07047C0464E
:100A400080B584B00390029101A90020087003983A
:100A500000F05BF8002818D1FFE70398C0680F4941
:100A60000840029A516893681943D26811430843B9
:100A70000399C86003980069032189078843029994
:100A8000096808430399086103E001A9012008707F
:100A9000FFE701A8007804B080BDC046C73FFFFF54
:100AA00081B00090009800680121084001B07047B3
:100AB00081B0009000980068C0B2C00901B07047D2
:100AC00081B0009000980068012149030840400B64
:100AD00001B0704781B00090009800680421084080
:100AE000800801B0704781B0009000988068C00F06
:100AF000401E4142484101B0704781B000900098CB
:100B000080680121084001B0704781B000900098D2
:100B100080680121084001B0704781B000900098C2
:100B2000C0680321084001B0704781B00090009870
:100B3000C06801214905084001B0704780B584B004
:100B40000390029101A9002008700398FFF7EDFFC0
:100B5000002801D0FFE7FFE70398FFF7E6FF002832
:100B600005D0FFE702984068F02801D0FFE7FFE7D3
:100B70000398FFF7CAFF00283AD1FFE70398FFF771
:100B8000D4FF002805D0FFE702984068F02812D073
:100B9000FFE70398C0681A490840029A11689368F1
:100BA0001943D36819431369194352691143084320
:100BB0000399C8600FE00398C06811490840029A81
:100BC0001168D368194313691943526911430843E3
:100BD0000399C860FFE70398FFF7A7FF002806D036
:100BE000FFE703980299496800F031F8FFE703E056
:100BF00001A901200870FFE701A8007804B080BDBA
:100C00003CC2FEFF81B000900098006C0149084092
:100C100001B07047FF0F000082B001900091019871
:100C2000C06803218843009908430199C86002B055
:100C3000704782B0019000910198C0680121490578
:100C40008843009908430199C86002B0704782B098
:100C500001900091009A0199886A1043886202B05D
:100C6000704783B00290019100920298806A019AC5
:100C70001F210A400F2319469140884300999B0683
:100C80001940890E914008430299886203B0704769
:100C900081B000900098806803490840001D0099C9
:100CA000886001B07047C046E8FFFF7F84B00390C2
:100CB0000291019202981049884204D1FFE70398FB
:100CC0000C30009009E0039802990122520511406E
:100CD000C90C4018A0300090FFE700980068029A05
:100CE000D143064B1943084001991140084300992C
:100CF000086004B07047C0460000C07C0000388324
:100D000083B00290019100920298406901990A0211
:100D1000904300991140034A1140084302994861E9
:100D200003B0704700FFFF0782B001900091019867
:100D300000680721890588430099084301990860E4
:100D400002B0704782B001900091019800690121C2
:100D50008843009908430199086102B0704783B045
:100D600002900191009202984069019A04210A4080
:100D700007219140884300999140084302994861B6
:100D800003B0704782B00190009101980069012181
:100D900049078843009908430199086102B07047E8
:100DA00081B00090009880680121C907084317218D
:100DB00088430099886001B07047000082B00190BC
:100DC000019A0548016811430160006801990840D3
:100DD0000090009802B070473C10024082B0019031
:100DE000019A1348016811430160006801990840A5
:100DF0000090009802B0704782B00190019A0C48B0
:100E00000168114301600068019908400090009852
:100E100002B0704782B00190019A05480168114301
:100E200001600068019908400090009802B0704786
:100E30004010024008480068072108407047C0463B
:100E400081B000900449086807229043009A10433B
:100E5000086001B07047C0460020024080B584B0F1
:100E60000390029100200190FFE702980068019929
:100E7000C84000284BD0FFE702980068019A012182
:100E8000914008400090009800283CD0FFE702986D
:100E90004068012805D0FFE70298406802280DD17C
:100EA000FFE703980099029A926800F095F803987A
:100EB0000099029AD26800F06EF8FFE70398009953
:100EC000029A126900F076F802984068022813D15D
:100ED000FFE70098FF2807D8FFE703980099029AD8
:100EE000526900F01FF806E003980099029A5269CF
:100EF00000F02BF8FFE7FFE703980099029A526889
:100F000000F037F8FFE70198401C0190ADE70020A2
:100F100004B080BD82B00190009100980199886270
:100F200002B0704783B00290019100920298006A6B
:100F3000019A524352430F21514388430099514330
:100F400008430299086203B0704783B00290019190
:100F500000920298406A01990A0A524352430F21B3
:100F6000514388430099514308430299486203B0B2
:100F7000704783B002900191009202980068019A34
:100F80005243032151438843009951430843029936
:100F9000086003B0704783B00290019100920298FC
:100FA0004068019A90430099514308430299486070
:100FB00003B0704783B00290019100920298C0681C
:100FC000019A5243032151438843009951430843F6
:100FD0000299C86003B0704783B0029001910092FB
:100FE00002988068019A5243032151438843009933
:100FF000514308430299886003B0704782B0019062
:10100000019A134801681143016000680199084082
:101010000090009802B0704782B00190019A0C488D
:101020000168114301600068019908400090009830
:1010300002B0704782B00190019A054801681143DF
:1010400001600068019908400090009802B0704764
:101050003410024080B582B0019001987D21C90012
:1010600000F002F802B080BD80B582B0019000911E
:1010700001980099FFF7D6F8401E05490860054918
:101080000020086004490520086002B080BDC04609
:1010900014E000E018E000E010E000E036480068EE
:1010A000382108407047C0462049086801221202D2
:1010B000104308607047C0461C480068012189023F
:1010C0000840800A7047C04684B0039002910192A4
:1010D000009311490868074A1040039A029B1A437B
:1010E000019B1B021A43009B1A431043086004B083
:1010F0007047C0468C80FF1F0C4908680122120609
:10110000104308607047C04603490868012212076F
:10111000104308607047C0460C1002400348006846
:10112000012149060840400E7047C04600100240A9
:1011300081B00090104908680F2212029043009A73
:101140001043086001B0704781B000900A490868F8
:10115000072212039043009A1043086001B07047C1
:1011600081B000900449086807229043009A104318
:10117000086001B07047C0460810024081B000907E
:1011800000980249086001B07047C0460400002082
:1011900083B002900191002000900198007B694685
:1011A000087000980321090288430199896808435F
:1011B0000090009801218A029043019A52681043DE
:1011C00000900098CA029043019A12681043009060
:1011D00000980A039043019AD28910430090009826
:1011E0004A039043019A12691043009000988A03C1
:1011F0009043019AD26A1043009000980F22120483
:101200009043019A5269104300900098090788435F
:1012100001998969084300900298714988421FD159
:10122000FFE700980F21090588430199496A08439F
:101230000090009801210A069043019AD269104358
:10124000009000984A069043019A126A1043009059
:101250000098490788430199896A08430090FFE78D
:10126000009802994864002003B0704782B0019052
:101270000091009A0199086A9043086202B0704791
:1012800082B001900091009A0199086A10430862A7
:1012900002B0704781B000900099486C0122D203DF
:1012A0009043486401B0704781B00090009908688D
:1012B00001229043086001B0704781B0009000990E
:1012C000886880229043886001B0704781B00090A8
:1012D0000099086880221043086001B0704781B00F
:1012E00000900099486C0122D2031043486401B079
:1012F000704781B00090009908680122104308608F
:1013000001B0704781B000900099486901221043F4
:10131000486101B07047000080B584B0039002912D
:1013200003980068019003982D49884205D0FFE793
:1013300003982C49884208D1FFE70198702188431F
:101340000299496808430190FFE7039824498842BD
:1013500014D0FFE70398234988420FD0FFE7039892
:10136000214988420AD0FFE703982049884205D0E6
:10137000FFE703981E49884209D1FFE7019803213E
:10138000090288430299C96808430190FFE7019860
:101390000399086003980299896800F009FA039894
:1013A0000299098800F01CFA03980D4988420AD076
:1013B000FFE703980D49884205D0FFE703980C49E1
:1013C000884206D1FFE703980299096900F010FAF4
:1013D000FFE70398FFF796FF002004B080BDC046EA
:1013E000002C014000040040002000400044014067
:1013F000004801408DB00C900B910B98012803D14F
:10140000FFE7002008904FE00B98042803D1FFE786
:101410000120079045E00B98102803D1FFE7022038
:1014200006903BE00B98402803D1FFE7032005908E
:1014300031E00B9801210902884203D1FFE7042023
:10144000049025E00B9801218902884203D1FFE72F
:101450000520039019E00B9801210903884203D16C
:10146000FFE7062002900DE00B99012002040720FF
:10147000082300939142019001D0009801900198B7
:101480000290FFE702980390FFE703980490FFE7BC
:1014900004980590FFE705980690FFE706980790E7
:1014A000FFE707980890FFE708990AA801700C99D0
:1014B0000378784AD25C8918183109910178764806
:1014C000405C0422824009990868904308600DB08E
:1014D0007047C0468DB00C900B910B98012803D13A
:1014E000FFE7002008904FE00B98042803D1FFE7A6
:1014F0000120079045E00B98102803D1FFE7022058
:1015000006903BE00B98402803D1FFE703200590AD
:1015100031E00B9801210902884203D1FFE7042042
:10152000049025E00B9801218902884203D1FFE74E
:101530000520039019E00B9801210903884203D18B
:10154000FFE7062002900DE00B990120020407201E
:10155000082300939142019001D0009801900198D6
:101560000290FFE702980390FFE703980490FFE7DB
:1015700004980590FFE705980690FFE70698079006
:10158000FFE707980890FFE708990AA801700C99EF
:101590000378404AD25C89181831099101783E4895
:1015A000405C0422824009990868104308600DB02D
:1015B0007047C0468DB00C900B910B98012803D159
:1015C000FFE7002008904FE00B98042803D1FFE7C5
:1015D0000120079045E00B98102803D1FFE7022077
:1015E00006903BE00B98402803D1FFE703200590CD
:1015F00031E00B9801210902884203D1FFE7042062
:10160000049025E00B9801218902884203D1FFE76D
:101610000520039019E00B9801210903884203D1AA
:10162000FFE7062002900DE00B990120020407203D
:10163000082300939142019001D0009801900198F5
:101640000290FFE702980390FFE703980490FFE7FA
:1016500004980590FFE705980690FFE70698079025
:10166000FFE707980890FFE708990AA801700C990E
:101670000378084AD25C8918183109910178064824
:10168000405C0822824009990868104308600DB048
:101690007047C046EC390008F539000880B586B0BF
:1016A00005900491039202A901200870049801900A
:1016B00001281CD0FFE7019810281FD0FFE70198F0
:1016C00001210902884220D0FFE701980121090386
:1016D000884221D0FFE7019801210904884222D0E5
:1016E000FFE7019801210905884223D029E00598E8
:1016F000039900F08FFA02A9087023E00598039976
:1017000000F0F4FA02A908701CE00598039900F0B3
:1017100061FB02A9087015E00598039900F0D0FB61
:1017200002A908700EE00598039900F025FC02A9B3
:10173000087007E00598039900F078FC02A908708A
:1017400000E0FFE702A8007806B080BD82B00190FB
:10175000009100980199486302B0704782B00190EF
:10176000009100980199886302B0704782B001909F
:10177000009100980199C86302B0704782B001904F
:10178000009100980199086402B0704782B00190FE
:1017900000910198806D00980199886502B07047AA
:1017A00082B00190009100980199C86502B070471D
:1017B00082B00190009100980199C86202B0704710
:1017C00082B0019000910198806804490840009916
:1017D00008430199886002B07047C046F8BFFEFF19
:1017E00082B00190009100980199886202B0704720
:1017F00082B00190009100980199086302B070478F
:1018000082B001900091019840687021884300994E
:1018100008430199486002B0704782B0019000917E
:10182000019840680F2109058843009908430199F0
:10183000486002B07047000080B59CB0002008905E
:101840001B901A901990189017901690159014905C
:1018500013901290119010900F900E900D900C908C
:10186000012009900005FFF7C7FA0998FFF7D4FB9C
:10187000089810210C9103210D911090052000076C
:101880000CA9FFF7EBFA08990C20079001F08CFBEC
:10189000079801F035FB0898099989071891199064
:1018A0001A901B9041480A9018A9FFF7C9F80999A6
:1018B0000A984905FFF7BDF9FFE73C48FFF700F933
:1018C000002801D1FFE7F8E738480690FFF756F8FF
:1018D0000698002104911291F022139201225203E2
:1018E00015921691179112A9FFF728F904990698F5
:1018F000FFF728FA04990698FFF744FA2C482D4977
:10190000FFF712FA0499069807220592FFF727FAC3
:10191000059A06982849FFF722FA0698FFF75AF821
:101920000698FFF760F80698FFF77CF823480068F0
:101930002349FEF777FC0146142048430A21FEF7AD
:1019400071FC0B90FFE70B98002804D0FFE70B9881
:10195000401E0B90F7E7154802901A4901911A4A68
:10196000FFF7A4F9019902982322D20000230393E0
:10197000FFF70CF80298FFF74BF802980399134A07
:10198000FFF76FF9FFE70948FFF79AF8002801D140
:10199000FFE7F8E705480090FEF7F0FF00980B49D5
:1019A0000022FFF7ADF91CB080BDC0460024014005
:1019B000082701400030C0B404FFFF0704000020E6
:1019C000400D03000000C07C1000C010100000108B
:1019D00080B58AB000200290099008900790069088
:1019E000059004900220FFF709FB01200190FFF70A
:1019F00005FB05200007039008210091FFF78AFAF4
:101A0000009B019A0299039804930592069107910D
:101A1000089104A9FFF722FA0AB080BD80B5A4B0EE
:101A20000020039023902290219020901F901E90E0
:101A30001D901C901B901A901990189017900BA84D
:101A400001903021FEF771FB03980A9009900890ED
:101A5000079006900590012002904004FFF7DAF904
:101A600003981FA908220A80209003222192229025
:101A70002390D7480090FFF74FFC0098FFF726FC13
:101A800000980299FFF796FD00980299039A602347
:101A900017931892199264231A931B921C921D9209
:101AA0001E9217AAFFF7FAFD02990098FFF712FDA0
:101AB00000980199029B039A0B920C920D920A7363
:101AC000CA815B030F9310921692FFF761FB02200D
:101AD0000490FFF7AFFA029A039904981302059352
:101AE00006900792089109910A90484805A9FFF7C6
:101AF000B5F924B080BDC04610B5A6B00020059051
:101B00002590249023902290219020901F901E9049
:101B10001D901C901B901A9019900DA803903021D5
:101B2000FEF703FB05980C900B900A900990089023
:101B3000079001200690C002FFF76CF9059821A9D3
:101B40002F4A0A8022902F4A239224902590DB4826
:101B50000290FFF7E1FB0298FFF7B8FB02980599A6
:101B6000FFF72EFE029810210191FFF723FD019946
:101B70000298059A602319931A921B92224B1C9388
:101B80001D921E921F92209219AAFFF787FD0199BC
:101B90000298FFF72FFC02980599FFF731FE029893
:101BA0000599FFF73AFE0298FFF787FB0298039921
:101BB000059A069B0D920E920F920A73CA815C03DE
:101BC00011941292139214925B0615931692179227
:101BD0001892FFF7DDFA02200490FFF72BFA049A1F
:101BE0000599069808230793089209910A910B9189
:101BF0000C90064807A9FFF731F926B010BDC04682
:101C0000CF020000409C0000204E00000004005065
:101C1000FFE7FEE780B586B005900491059A106A4B
:101C20000121C943084010620598006A0290059896
:101C300040680190059880690390039803229043BF
:101C4000039003989C4A1040049A12681043039032
:101C5000029802229043049A12691043029002985B
:101C6000084004994968084302900598EC49884265
:101C70000AD0FFE70598EB49884205D0FFE70598B1
:101C8000E949884221D1FFE7029808218843049955
:101C90004969890008430290029804218843049905
:101CA0008968890008430290019801210A02904343
:101CB000049A92691043019001984902884304995B
:101CC000C969490008430190FFE7019805994860F8
:101CD00003980599886105980499C968FFF736FD4E
:101CE000029805990862002006B080BD80B586B0D4
:101CF00005900491059A106A1021C94308401062AA
:101D00000598006A029005984068019005988069DE
:101D10000390039803221202904303900398EC4A25
:101D20001040049A12681202104303900298202275
:101D30009043049A126912011043029002980840DD
:101D4000049949680901084302900598E1498842CD
:101D50000AD0FFE70598E049884205D0FFE70598DB
:101D6000DE49884222D1FFE7029880218843049906
:101D700049698901084302900298402188430499E7
:101D80008968890108430290019801218A029043E1
:101D9000049A92699200104301900198C902884305
:101DA0000499C969C90008430190FFE701980599A2
:101DB000486003980599886105980499C968FFF7F8
:101DC000CDFC029805990862002006B080BDC0468F
:101DD0000044014080B586B005900491059A106AD0
:101DE0003449084010620598006A029005984068DE
:101DF00001900598C06903900398032290430390D3
:101E00000398864A1040049A12681043039002987F
:101E1000012252029043049A126912021043029066
:101E200002980840049949680902084302900598FD
:101E3000A84988420AD0FFE70598A749884205D0FB
:101E4000FFE70598A549884222D1FFE702980121C2
:101E5000CA029043049A5269920210430290029877
:101E60008A029043049A9268920210430290019869
:101E70000A039043049A9269120110430190019859
:101E8000490388430499C969490108430190FFE760
:101E900001980599486003980599C86105980499C7
:101EA000C968FFF763FC029805990862002006B034
:101EB00080BDC046FFFEFFFF8FFFFEFF002C0140EC
:101EC00080B586B005900491059A106A29490840AA
:101ED00010620598006A0290059840680190059884
:101EE000C069039003980322120290430390039861
:101EF000774A1040049A1268120210430390029825
:101F0000012252039043049A126912031043029073
:101F1000029808400499496809030843029005980B
:101F20006C4988420AD0FFE705986B49884205D082
:101F3000FFE70598694988420AD1FFE70198012126
:101F40008903884304998969890108430190FFE75F
:101F500001980599486003980599C8610598049906
:101F6000C968FFF70BFC029805990862002006B0CB
:101F700080BDC046FFEFFFFF80B584B003900291A3
:101F8000039A106A2449084010620398006A00907E
:101F90000398406D01900198204A1040029A1268FF
:101FA000104301900098012252049043029A126952
:101FB00012041043009000980840029949680904EF
:101FC000084300900398434988420AD0FFE70398EA
:101FD0004149884205D0FFE70398404988420CD127
:101FE000FFE7039840680121090488430299896941
:101FF0000902084303994860FFE70198039948657F
:1020000003980299C968FFF7C1FB00980399086219
:10201000002004B080BDC046FFFFFEFF8FFFFEFF23
:10202000002C0140004401400048014080B584B0CC
:1020300003900291039A106A2449084010620398A1
:10204000006A00900398406D01900198204A10406A
:10205000029A126812021043019000980122520560
:102060009043029A126912051043009000980840AC
:102070000299496809050843009003981549884268
:102080000AD0FFE703981449884205D0FFE7039878
:10209000124988420CD1FFE7039840680121890466
:1020A0008843029989698902084303994860FFE7D8
:1020B00001980399486503980299C968FFF770FB76
:1020C000009803990862002004B080BDFFFFEFFF75
:1020D000FF8FFFFE002C01400044014000480140FA
:1020E000704780B500F0E2FB80BD000080B588B08D
:1020F000079006A8017065480190FFE701980078F5
:10210000002803D1FFE700F0D1FBFFE7FFE7EFF383
:102110001080012181F31088009007981821414315
:102120005A484018183005900598C068401C049023
:10213000049805998968884203D1FFE7002004903C
:10214000FFE705984069022809D1FFE7FFE70498F7
:1021500005990969884201D1FFE7F8E7FFE704988C
:102160000599096988420ED0FFE705994868C96852
:102170004018029006980299087004980599C86062
:102180000120039002E000200390FFE7009880F315
:102190001088039808B080BD80B586B00590049182
:1021A00003923A480190FFE701980078002803D194
:1021B000FFE700F07BFBFFE7FFE7EFF31080012173
:1021C00081F31088009005980499039A00F008F8AC
:1021D0000290009880F31088029806B080BDC04637
:1021E00080B58AB0099008910792089804900998E0
:1021F000182141432548401818300390039840693E
:102200000290002808D0FFE70298012819D0FFE7C4
:10221000029802282CD032E0039800F091FB059040
:1022200005980799884203D2FFE70020069007E04F
:102230000798069003980499079A00F01FFEFFE79D
:1022400020E0039800F07CFB0590059807998842F0
:1022500003D2FFE70598019002E007980190FFE79D
:102260000198069003980499069A00F007FE09E089
:1022700003980499079A00F091FD069002E000206F
:102280000690FFE706980AB080BDC046080000200F
:1022900082B080B584B0079306920390029106A89D
:1022A0000090039802996A4600F008F8019001989E
:1022B00004B080BC02BC02B08E46704710B5A6B018
:1022C00025902491239209A81D9040201E90002063
:1022D0001F90259921912090FFE72498017822A84A
:1022E00001702499491C24910078002801D1FFE74E
:1022F0003AE222A80078252800D02AE200201A908D
:1023000001201C90FFE72498017822A80170007832
:10231000233805900D2841D80598810001A0405828
:102320008746C0468D2300089D2300089D23000892
:102330009D2300089D2300089D2300089D2300087D
:102340009D2300087D2300089D2300085D230008CD
:102350009D2300089D2300086D2300081A98012181
:1023600008431A902498401C24901AE01A980221DD
:1023700008431A902498401C249012E01A980421D3
:1023800008431A902498401C24900AE01A980821C7
:1023900008431A902498401C249002E000201C90CE
:1023A000FFE7FFE71C980028ADD1FFE70020199058
:1023B000FFE72498017822A801700078302805DB17
:1023C000FFE722A800783A2801DBFFE70FE0249816
:1023D000401C249019980A21414322A800784018F3
:1023E00030381990FFE701200028E2D1FFE70020F4
:1023F0001B902498017822A8017000782E2823D100
:10240000FFE72498401C2490FFE72498017822A835
:1024100001700078302805DBFFE722A800783A2811
:1024200001DBFFE70FE02498401C24901B980A2151
:10243000414322A80078401830381B90FFE7012064
:102440000028E2D1FFE7FFE72498007822A908706E
:10245000FFE722A800786C2805D0FFE722A80078C3
:10246000682808D1FFE72498401C2490249800781D
:1024700022A9087000E004E0FFE701200028E8D16D
:10248000FFE722A8007825380490532800D95BE1A3
:102490000498810001A040588746C046CB2600081A
:1024A000492700084927000849270008492700084C
:1024B000492700084927000849270008492700083C
:1024C000492700084927000849270008492700082C
:1024D000492700084927000849270008492700081C
:1024E000492700084927000849270008492700080C
:1024F00049270008492700084927000849270008FC
:1025000049270008492700084927000849270008EB
:1025100049270008492700084927000849270008DB
:10252000D526000849270008492700084927000840
:1025300049270008492700084927000849270008BB
:1025400049270008492700084927000849270008AB
:10255000492700084927000849270008492700089B
:1025600049270008492700084D2600084927000888
:10257000492700084927000849270008492700087B
:10258000492700084927000849270008492700086B
:1025900049270008ED2500080926000849270008FA
:1025A000D5260008492700084927000849270008C0
:1025B000492700084927000849270008492700083B
:1025C0004927000849270008AB26000849270008CA
:1025D000492700086F260008492700082B26000815
:1025E00049270008492700084D260008239A10684B
:1025F000011D116000681C901C9908A801700178E9
:102600001DA800F091FBA0E0239A1068011D116045
:1026100000681C901C991B9B19981A9A01920090B3
:102620001DA80A2200F0ABF98FE0239A1068011D63
:10263000116000681C901C991B9B19981A9A0192B2
:1026400000901DA80A2200F08BFA7EE0239A106801
:10265000011D116000681C901C991B9B19981A9A07
:10266000019200901DA8102200F07AFA6DE0239AE2
:102670001068011D116000680790FFE70798017856
:1026800022A801700799491C07910078002801D100
:10269000FFE709E022A801781DA800F045FBFFE74D
:1026A00020980028EAD5FFE74FE0239A1068011D23
:1026B000116000681C901C99002001900823009371
:1026C0001DA8102200F04CFA3FE01DA8252100F0C3
:1026D0002BFB3AE0239A1068C11D0720814308466E
:1026E0000830106008684968FDF780FD069006987C
:1026F000FDF763FD1C901C991B9B19981A9A019277
:1027000000901DA803900A22029200F038F9039865
:102710002E2100F009FB06981E49FDF711FDFDF77B
:102720004CFDFDF7E5FC1C901C986421FDF79AFD1B
:10273000029A03981C911C99199B1A9C019400936E
:10274000022300F01CF900E0FFE72498401C2490CD
:1027500005E022A801781DA800F0E6FAFFE7FFE7F0
:102760002098002800D4B8E5209801280FDBFFE767
:102770001F98002806D0FFE725981F9A09A9FFF7A0
:102780000BFDFFE71F99209840182090FFE7209845
:1027900026B010BD0000C8427047704780B582B0B7
:1027A0000220FEF74DFBFFE7FEF744FB022801D0B5
:1027B000FFE7F9E7FEF778FCFFE7FEF77DFC01286D
:1027C00001D0FFE7F9E7012043070220002108229A
:1027D000FEF77AFCFEF790FCFEF796FCFFE7FEF7AB
:1027E0009DFC012801D0FFE7F9E70020FEF7A0FCDF
:1027F0000220FEF7B5FCFFE7FEF750FC102801D0E1
:10280000FFE7F9E70020FEF79FFC04480190FEF780
:1028100021FC0198FEF7B2FC02B080BD0090D0030D
:102820007047000080B582B00E4801900121FEF78C
:1028300027FD0198FEF75DFD0198FEF750FD02B0FF
:1028400080BDC04680B582B0064801900121FEF7E8
:102850000DFD0198FEF728FD0198FEF71BFD02B063
:1028600080BDC0460044014080B582B00E48019052
:102870001021FEF705FD0198FEF73BFD0198FEF7DC
:102880002EFD02B080BDC04680B582B006480190E2
:102890001021FEF7EBFC0198FEF706FD0198FEF70C
:1028A000F9FC02B080BDC046002C014080B582B06A
:1028B0001E4801900198A821FDF737FC01990320DB
:1028C0000861019948610198194A82610199194882
:1028D000C861019901208002086201990020886284
:1028E00001994862019B0221D962019B1A66019BF2
:1028F000114A5A66019B10229A66019A1067019A42
:10290000D066019A51670090FFE700980F280BD816
:10291000FFE7009A0948801AC07B01998854FFE7B5
:102920000098401C0090F0E702B080BD0800002035
:102930001F3A0008C0000020B0000020FE39000847
:1029400084B003900398006902900398C0680190D6
:1029500002980199884209D8FFE703988068019995
:10296000401A02994018401E009005E00299019813
:10297000C04340180090FFE7009804B07047B0B51E
:1029800090B0159C149C0F900E910D920C930E9884
:10299000002804D5FFE70E984042099002E00E9807
:1029A0000990FFE709980A9001200B90FFE70A9829
:1029B0000D99884209DBFFE70A980D99FDF752FC53
:1029C0000A900B98401C0B90F1E70C980B998842E9
:1029D00003D9FFE70C980B90FFE7149800280ED05E
:1029E000FFE70E98002806D4FFE715A800784007F7
:1029F000002804D5FFE71498401E1490FFE715A89F
:102A000000788007002804D5FFE70C98002833D011
:102A1000FFE715A80078C00700282DD1FFE714981C
:102A2000002828D0FFE7FFE714990020002908902C
:102A30000DD0FFE70B99149A0120002306939142D1
:102A4000079001D30698079007980890FFE7089829
:102A5000C00700280ED0FFE71498401E14900F986E
:102A6000202100F061F90F98C068002801D5FFE728
:102A700000E0D9E7FFE7FFE70F98C06800286DD4B2
:102A8000FFE70E98002808D5FFE70E9840420E9009
:102A90000F982D2100F048F90CE015A800784007A8
:102AA000002805D5FFE70F982B2100F03DF900E045
:102AB000FFE7FFE70F98C06800284ED4FFE715A88E
:102AC00000788007002837D5FFE715A80078C007F1
:102AD000002831D1FFE70C9800282DD1FFE714988A
:102AE000002828D0FFE7FFE714990020002905906F
:102AF0000DD0FFE70B99149A012000230393914214
:102B0000049001D30398049004980590FFE705987A
:102B1000C00700280ED0FFE71498401E14900F98AD
:102B2000302100F001F90F98C068002801D5FFE7B7
:102B300000E0D9E7FFE7FFE70F98C06800280BD453
:102B4000FFE70F980E990D9A0C9B149C159D01950B
:102B5000009400F005F8FFE7FFE7FFE710B0B0BD15
:102B600010B590B0139C129C0F900E910D920C9387
:102B70000E98099001200A900890FFE709980D9996
:102B8000884209D3FFE709980D99FDF74BFB09909F
:102B90000898401C0890F1E70C980899884203D9DE
:102BA000FFE70C980890FFE713A80078C0070028FB
:102BB00040D1FFE7129800283BD0FFE713A8007828
:102BC0008007002808D5FFE70C98002804D1FFE70C
:102BD00007A93020087003E007A920200870FFE74C
:102BE000FFE712990020002906900DD0FFE7089911
:102BF000129A0120002304939142059001D3049876
:102C0000059005980690FFE70698C00700280FD0AA
:102C1000FFE71298401E12900F9807A9097800F05C
:102C200083F80F98C068002801D5FFE700E0D8E7D7
:102C3000FFE7FFE70F98C068002870D4FFE7FFE7C1
:102C40000C98022804D3FFE70C98401E0C900BE070
:102C50000E980A99FDF7E6FA0B900B980D998842A9
:102C600001D2FFE705E0FFE70D980A9948430A9073
:102C7000E6E7FFE70E980A99FDF7D4FA0B900B9858
:102C80000A9941430E98401A0E900F980B9A2549C5
:102C9000895C00F049F80F98C068002801D5FFE76B
:102CA00009E00D990A98FDF7BDFA0A90FFE70A9826
:102CB0000028DFD1FFE713A80078C00700282DD037
:102CC000FFE71298002828D0FFE7FFE712990020BD
:102CD000002903900DD0FFE70899129A01200023E4
:102CE00001939142029001D30198029002980390BF
:102CF000FFE70398C00700280ED0FFE71298401E98
:102D000012900F98202100F00FF80F98C06800284B
:102D100001D5FFE700E0D9E7FFE7FFE7FFE710B0E5
:102D200010BDC0460F3A000880B584B0039002A8D9
:102D300001700398806801900198401C03994968CC
:102D400088420ED8FFE7029803990968019A8854CF
:102D50000198401C039988600399C868401CC860AA
:102D6000FFE7039988684968884215D1FFE7039A0D
:102D7000106911689268FFF70FFA03998968884211
:102D800005D0FFE703990020C043C86003E0039922
:102D900000208860FFE7FFE704B080BD80B58AB0FF
:102DA000099008910792002005900998C068039047
:102DB000FFE709980069049004980399884206D9AE
:102DC000FFE704990398C0434018069008E009986B
:102DD00081680398049A801AC04340180690FFE760
:102DE000069809998968039A891A884203D2FFE7ED
:102DF0000698019005E0099880680399401A0190AF
:102E0000FFE70198069006980799884203D2FFE7EA
:102E10000698009002E007980090FFE7009806905F
:102E20000998406803994018029002980899069AF8
:102E3000FDF762F9069905984018059006990898DB
:102E40004018089006990798401A07900699039829
:102E500040180390039809998968884203D1FFE7D5
:102E600000200390FFE703980999C860FFE70798DF
:102E700000289ED1FFE705980AB080BD80B588B0D4
:102E80000790069105920798C0680390079880689C
:102E90000399401A029002980599884210D9FFE7D9
:102EA0000798406803994018019001980699059A7F
:102EB000FDF722F90398059940180799C8601DE0AD
:102EC000029804900798406803994018019001986F
:102ED0000699049AFDF710F905980299401A049092
:102EE00007984068019001980699029A8918049AF7
:102EF000FDF702F904980799C860FFE708B080BDA4
:102F000081B001466846017000214056002809D46E
:102F1000FFE7684601781F200140012088400249F0
:102F20000860FFE701B0704700E100E070B582B0D3
:102F3000024601A80270009100214056002816D4D4
:102F4000FFE7002401A908570322D3431840364A5B
:102F5000805809578C07E50EFF24AC40A043009C25
:102F6000A401E4B2AC402043194088501AE001A902
:102F700008780F24204008380322D3431840294AF8
:102F80008058002549578D07EE0EFF25B540A84310
:102F9000009DAD01EDB2B5402843214008391940EC
:102FA0008850FFE702B070BD70B582B0024601A83C
:102FB0000270009100214056002816D4FFE700243B
:102FC00001A908570322D3431840174A80580957CC
:102FD0008C07E50EFF24AC40A043009CA401E4B2A2
:102FE000AC402043194088501AE001A908780F240A
:102FF000204008380322D34318400A4A805800254D
:1030000049578D07EE0EFF25B540A843009DAD0141
:10301000EDB2B54028432140083919408850FFE7F8
:1030200002B070BD1CED00E000E400E080B584B0AB
:103030000290019101980849884205D1FFE7029862
:1030400000F03EF8039003E00020C0430390FFE748
:10305000039804B080BDC0460000002080B584B055
:1030600000200290039001200190FDF7B7FE019827
:103070000007FDF7A3FE0298C0430321FFF756FFA8
:10308000FFF78CFBFEF7A4FCFEF7D6FBFEF7C6FCB1
:10309000FEF732FDFFF725F802980749FFF7F8F829
:1030A000FDF70EFC0548FDF7F3FDFFF7BBFBFFF74F
:1030B000DBFBFFE7FEE7C046283A0008002401409A
:1030C00080B582B0019001A801780020FFF70EF8CA
:1030D00002B080BD0FB410B503A9044B044A029896
:1030E00000F0E8F810BC08BC04B018472D30000808
:1030F000000000202021020C01D010211046020AFD
:1031000001D010460839020901D01046091F820873
:1031100001D01046891E420801D0881E7047081A47
:10312000704702E008C8121F08C1002AFAD1704790
:103130007047002001E001C1121F002AFBD1704737
:10314000F0B51FB486B00998089A030D0021024318
:1031500014D05148514A18185043051411980128A9
:1031600010981AD0281A401C00264D4F4D49009641
:1031700001910490002812DA444211E011980124D0
:1031800049A3012801D11098C1430698119A84607F
:103190000360C26041600BB0F0BD4042E4E704460A
:1031A000210500203F4A001C51410391029012E08A
:1031B000E00707D032463B4601990098FDF79EF99B
:1031C0000191009032463B4610461946FDF796F9AC
:1031D00006460F466410002CEAD10498039B002891
:1031E000029A0999089806DAFDF788F9019B009A76
:1031F000FDF784F905E0FDF7E9F9019B009AFDF779
:10320000E5F904460E460022284BFDF777FA03D86D
:103210000020C043014607E00022254B20463146EE
:10322000FDF7BAF8FDF74AFA102409E0002C0ADB92
:103230000A220023FDF73EF8079B30321A55641E20
:1032400002460A43F2D11122641C079B121B1C196F
:10325000119B012B03D0012308430ED10AE0084340
:1032600004D0112010900020119077E71098151AC3
:103270006D1E0BE01098824202DD00236D1C03E0FE
:10328000824201DA00236D1E002BEED006981199C0
:103290008260C16030C07EE701FCFFFF104D00007E
:1032A000000014400000F03F300000000000F04338
:1032B0000000E03FFFB597B00646002518E225283C
:1032C00077D100242746FD49049400E00443761C8E
:1032D00032780120203A90400842F7D130782A28ED
:1032E0000ED00222307801463039092916D80499C7
:1032F0000A235943303940181443761C0490F1E7EF
:10330000189802C804911890002904DA012040039B
:1033100004434842049002200443761C30782E284F
:1033200014D1042004437078761C2A2809D11898F7
:10333000761C80C8189009E00A214F43303FC71916
:10334000761C3078014630390929F5D930786C2857
:1033500010D006DC4C281AD068280ED06A2817D165
:1033600004E0742813D07A2812D110E0012040051F
:1033700004430CE00121090501E0032109050C4388
:103380007178814203D1012000052418761C761C37
:103390003078119066280BD013DC58287DD009DCDA
:1033A00000287BD04528F6D04628F4D047281AD1EB
:1033B000A5E118E0632835D0642870D0652812D1C3
:1033C0009DE170286CD008DC6728F1D069287BD09B
:1033D0006E280DD06F2806D1BAE073282ED075283C
:1033E00071D0782859D01A9A199990476D1C7EE1AE
:1033F0006002400F022809D003280DD00428189835
:1034000001680DD00D60001D189070E11898EA1742
:1034100001680D604A60F6E7189801680D80F2E7D0
:103420000D70F0E718986A4601781172001D189027
:103430000020507202A80090012005E0189802C8F0
:10344000189000200091C04361070DD5002101E0D4
:103450000199491C0191B94212DA8142F8DB009AC4
:10346000515C0029F4D10BE0002101E00199491CD5
:1034700001918142FADB019A0099895C0029F5D11A
:10348000019904981A9B471A21463846199A00F068
:1034900097FA0199401945180BE04FE02CE113E031
:1034A0004EE0009800990078491C00911A9A1999E9
:1034B00090470198401E0190401CF2D121463846A9
:1034C0001A9B199A10E137E00A200021009001911F
:1034D0006002410F022907D0189A01CA1892C21738
:1034E0009446032908D00AE01898C01DC108C900F5
:1034F00005C91891944607E000B2C2179446042902
:1035000002D140B2C1178C4600226146944506DACA
:103510000A460021404291418C462D2102E02105BE
:1035200004D52B216A461173012103E0E10701D084
:103530002021F7E7029155E00A200AE0102008E078
:10354000102000900021042004430191082703E08B
:1035500008200021019100906002410F022907D04C
:10356000189A01CA189200229446032908D008E04C
:103570001898C01DC108C90005C91891944603E0F8
:1035800080B2042900D1C0B200210291210729D5BF
:103590001199702906D0009A1021019B4A401A43C4
:1035A00005D00EE040216A461173012108E0614612
:1035B000014306D030216A461173119951730221DB
:1035C0000291009A0821019B4A401A430AD16146A0
:1035D000014301D1610705D530216A4611730121EC
:1035E0007F1E02911199582904D035A10E910DA981
:1035F0000D910DE037A1F9E76146019B009AFCF7B8
:1036000059FE0E9B8C469B5C0D9A521E0D921370B8
:1036100061460143F0D10D9805A9081A20300190A8
:10362000600703D501200004844300E001270198CE
:10363000874201DD381A00E000200199009041180E
:10364000029809180498401A0490E00306D4214611
:103650001A9B199A049800F0B3F94519002706E05F
:1036600003A81A9AC05D199990476D1C7F1C029897
:103670008742F5DBE0030CD521461A9B199A049882
:1036800000F09EF9451904E01A9A302019999047E4
:103690006D1C0099481E00900029F5DC08E00D988B
:1036A0000D990078491C0D911A9A199990476D1C33
:1036B0000199481E01900029F1DC63E1092801000D
:1036C0003031323334353637383961626364656698
:1036D000000000003031323334353637383941425A
:1036E000434445460000000000F05AF94519761C95
:1036F0003078002800D0E2E528461BB0F0BD600716
:1037000000D406271898C01DC108C90048680A6877
:103710000831C30FDB071891190001D09CA108E004
:10372000210501D59BA104E0E10701D09AA100E0A9
:103730009AA1430011985B08109165280CD006DC13
:10374000452809D046281DD0472841D141E06628A8
:1037500018D067283CD13CE00021112F01DB11205B
:1037600000E0781C0191009008A911A8FFF7E8FC7F
:10377000139905910021119A15927F1C12980197B7
:10378000009150E00120C00703900120019008A99A
:10379000009711A8FFF7D4FC139A14990592002200
:1037A000119B009212981593059A0192002901D05D
:1037B000104602E0791C40180190381A01D5019892
:1037C00004E04042401E0090781C0190C01B029013
:1037D00043E0012F00DA01270021112F01DD112024
:1037E00000E038460191009008A911A8FFF7A8FC55
:1037F00013990591119A0021129815920091019741
:1038000021070CD40599B94201DB019900E001912F
:10381000012904DD159A491E515C302906D0B842B1
:1038200001DA011D05DA0121029115E00199491E15
:10383000EDE7002805DC0099411800910199091A6B
:1038400003E0019A411C914200DD01910099401A68
:10385000401C02900120C0070390200706D4029963
:103860000198814202DB0020C0430290002069469B
:10387000C87707AF012103980337C907884224D0CE
:10388000022011902B201290039800280CDA40425D
:1038900003902D20129007E00A210398FCF7C2FC48
:1038A00030317F1E039039701199481E1190002904
:1038B000F2DC03980028EFD1791E12980870307856
:1038C000202108404530BF1E387006A8C01BC01D0F
:1038D000039010980078002800D001200199411829
:1038E0000298C0170918039809180498401A401E36
:1038F0000490E00306D421461A9B199A049800F01C
:103900005FF8451910980078002803D01A9A199981
:1039100090476D1CE00324D521461A9B199A049800
:1039200000F04EF845191CE00098002807DB0099CC
:103930000598884203DD1598405C199901E01999B2
:1039400030201A9A904700986D1C401C00900298F5
:10395000401E0290002804D11A9A2E2019999047EF
:103960006D1C0199481E01900029DDDC05E03878C6
:103970001A9A7F1C199990476D1C0399481E039051
:103980000029F4DC21461A9B199A0498ACE6000041
:103990002D0000002B0000002000000000000000AF
:1039A000F8B5044600251E461746880404D405E0F1
:1039B00039462020B0476D1C641EF9D52846F8BD55
:1039C000FFB50446002581B01E46C80301D5302747
:1039D00000E02027880404D505E038460399B04765
:1039E0006D1C641EF9D5284605B0F0BD000000002E
:1039F0000404043C3C00000800000008000800002B
:103A000000000000545452205245474745530030AF
:103A100031323334353637383941424344454654E0
:103A200065726D696E616C0048656C6C6F20776FB4
:103A3000726C64210D0A00414443315F41574431A7
:103A40003A25640D0A00414443315F454F433A250E
:103A5000640D0A00783A0008000000200800000009
:103A600022310008803A000808000020B808000051
:103A70003231000800000000000000000024F400C3
:04000005080000C12E
:00000001FF
