:020000040800F2
:10000000681A0020A50100089B0D0008AF03000836
:1000100000000000000000000000000000000000E0
:10002000000000000000000000000000DD010008EA
:100030000000000000000000610200086D020008DE
:10004000B701000800000000B7010008B701000870
:10005000B7010008B7010008B7010008B7010008A0
:1000600000000000B7010008B7010008B701000850
:10007000B7010008B7010008B70100080000000040
:10008000B70100080000000000000000B7010008F0
:1000900000000000B7010008B7010008B701000820
:1000A000B7010008B7010008B7010008B701000850
:1000B000B701000800000000000000000000000080
:1000C00000F002F800F03EF80CA030C80838241800
:1000D0002D18671EA246AB4654465D46AC4201D180
:1000E00000F030F87E460F3EB6460FCC0126334274
:1000F00000D0FB1A3343A246AB4618474428000001
:1001000064280000103A02D378C878C1FAD85207A0
:1001100001D330C830C101D504680C6070470000BD
:100120000023002400250026103A01D378C1FBD813
:10013000520700D330C100D50B6070471FB51FBDFB
:1001400010B510BD00F000F9114603B400F062FFD5
:1001500003BCFFF7F3FF00F071FF00F014F903B4E4
:10016000FFF7EEFF03BC00F01BF9000070B5054679
:100170000C46164602E00FCC0FC5103E102EFAD2E8
:10018000082E02D303CC03C5083E042E07D301CCAE
:1001900001C5361F03E021782970641C6D1C761E92
:1001A000F9D270BD0748804707480047FEE7FEE7E1
:1001B000FEE7FEE7FEE7FEE704480549054A064B71
:1001C00070470000B90E0008C10000086814002044
:1001D000681A002068160020681600207046C008C3
:1001E0002CD3EFF309808169891E0978002929D170
:1001F00001B50FC8B8470CBC10609E461E4B06CB1D
:1002000091421ED0083B1A60002909D0EFF3098003
:1002100020388863F0C044464D4656465F46F0C0DD
:10022000906B1030F0C8A046A946B246BB4680F39A
:1002300009882038F0C80220C0430047EFF3088047
:10024000D1E770470D4A13689942FAD801B5890081
:1002500053589C460FC8E0470CBC10609E46704740
:1002600001B501F0C9F903BC8E46C7E701B501F03D
:1002700011FC03BC8E46C1E718000020BC28000812
:10028000F8B5042A2CD3830712D00B78491C0370CD
:10029000401C521E83070BD00B78491C0370401C76
:1002A000521E830704D00B78491C0370401C521E59
:1002B0008B079B0F05D0C91ADF002023DE1B08C95E
:1002C0000AE0FFF753FFF8BD1D4608C9FD401C4674
:1002D000B4402C4310C0121F042AF5D2F308C91AE7
:1002E000521EF0D40B78491C0370401C521EEAD4F5
:1002F0000B78491C0370401C012AE4D40978017072
:10030000F8BD01E004C0091F0429FBD28B0701D509
:100310000280801CC90700D00270704700290BD0F2
:10032000C30702D00270401C491E022904D3830770
:1003300002D50280801C891EE3E70022EEE700223E
:10034000DFE7704770477047754600F025F8AE4606
:10035000050069465346C008C000854618B020B560
:10036000FFF72AFF60BCB64600260027C0C5C0C5FF
:10037000C0C5C0C5C0C5C0C5C0C5C0C5403D490891
:1003800049008D46704710B50446C046C046204619
:10039000FFF7E5FE10BD000000487047A8000020F0
:1003A00001491820ABBEFEE7260002007047FEE7B9
:1003B00082B07D20C40000260B4F01963E6032259E
:1003C000284600F07FFE761C322EF7D1204600F042
:1003D00079FE3D60322000F075FE6D1EF9D1204699
:1003E00000F070FE019EE9E7382C01408268D207D8
:1003F00012D1C268094B13404A681A438B681343F1
:10040000CA681A43C26003229207036993430968CA
:10041000194301610020704701207047C73FFFFF6B
:10042000F0B5C268C2688268D20713D101225305B1
:10043000C2689202134A0FD54C68F02C0CD1C468E4
:1004400014400D6825430E460C3654CE2A432243F1
:1004500032430CE00120F0BDC46814400D68254310
:100460000F460837D4CF2A43224332433A43C2606F
:10047000C46800221C4203D04968836A0B4383622C
:100480001046F0BD3CC2FEFFF0B581B00B68002BFA
:1004900056D00646002219E037467169644364432A
:1004A00061430F266643446AB44306460C4339460B
:1004B0004462084649684B4331682940194331601A
:1004C0000146521C0B681C46D44039D0012494408C
:1004D0001C40F6D048680090431E012B0FD82346DD
:1004E00063438D685D4303275F43B368BB432B437E
:1004F000B360CB6863437568A5431D4375602346AD
:1005000063430D695D4303275F433046F668BE438E
:100510002E43C6600646FD43009F022FC9D10E46FA
:10052000240AB9D119465943374674694C430F26FA
:100530004E43016AB1430646214301623946B8E79A
:10054000002001B0F0BD000080B57D21C90002F09F
:1005500041F8401E0349486000208860052008607B
:1005600080BDC04610E000E0014908607047C04609
:1005700000000020F0B5CA6A1B4B1340012214078B
:100580004D69A5431D438B692B4370C9174F2F40FD
:10059000174D35400E782E433E43164D25403543CA
:1005A0004C68154E26402E434D88144C2C40344345
:1005B0001C43E94B0C39984201D0234611E0104B03
:1005C0001C4023231E06CD690B6A4F6A896AB74314
:1005D000274311246406A5433D43520793432B430D
:1005E0000B4343640020F0BDFFFFF0EFFF87F0EF07
:1005F000FF83F0EFFF8FF0EFFFBFF0EFFF9F0000F2
:10060000FFFF0FDC10B50468D34A904202D01B4BA9
:10061000984204D170239C434B68234300E0234657
:10062000174CA04208DD90420CD0CC4CA04209D01F
:10063000CB4CA04206D01FE0104CA04202D0114C7F
:10064000A04219D103242402A343CC681C430460B4
:100650008B68C3620B888362904205D0BF4A904288
:1006600002D0BF4A904201D1096901634169012268
:100670000A434261002010BD1C46E8E70004004028
:10068000FF2B014000200040F0B584B00123B14CA5
:10069000A1424DDC012900D182E0102900D1D2E035
:1006A00001242402A14200D051E1016AA143016268
:1006B000B049491C13691B020B4003210291090236
:1006C000046A8C431C431168039153681B02234343
:1006D0004568C469A04FB84205D0A04FB84202D0C7
:1006E0009F4FB84219D102990F03BD435669019635
:1006F0009669D769009737019D4E3E402E43009D75
:100700006D01354389028B439B49091D019EB60249
:100710000E401E4391688B023343456092490C4062
:1007200003990C43C461D168C163036200230EE1E5
:1007300001242503A9426CD02504A94200D1C1E0BF
:100740002505A94200D002E1016AA9430162016ABC
:100750001668536803931569476D7F4B984205D01F
:100760007E4B984202D07E4B984206D1A304446847
:100770009C4393699B02234343607A4B1F4033029F
:100780003B434365D268C2650322120591436A0860
:1007900052050A4303990905114301620023D6E07B
:1007A0000126F143036A0B40036213690B40046A9C
:1007B0000327BC431C4311680391516821434568DA
:1007C0008469654B984205D0644B984202D0FB4B3C
:1007D000984213D13B029D43730256690296976972
:1007E000D6699F432F4375003D430C239943029BD9
:1007F0005B08DB000B4391688900194345605A4B45
:100800001C40039B1C438461D26842630162002345
:100810009DE0016AA9430162016A43681668556850
:10082000039515690295C7694B4DA84205D04B4DFC
:10083000A84202D0E14DA84272D1A403A343946917
:10084000A4011C436DE0016A102399430162016A0F
:100850003023994313695B085C010C4317685168A6
:1008600009012143456883693B4EB04205D03B4EA8
:10087000B04202D0D14EB04219D10326B602B543E0
:10088000546903943E469769D4690294BF003A4C78
:100890003C4037462C43029DED002543C024A14334
:1008A000039C6408E4010C4391688901214345607D
:1008B0002E4C23403C021C438461D2688263016257
:1008C000002344E0284D7335016A29400162016A22
:1008D0001668536803931469476D1F4B984205D0FF
:1008E0001E4B984202D0B54B984205D143682B402D
:1008F00095692D021D4345601B4BDB1C1F40374390
:100900004765836DD26882650322120491436208B1
:1009100052040A430399090411430162002316E0BB
:100920001C464460114B1F4033023B43C361D268F5
:1009300002640322120391430D4A1032029B1B03EF
:1009400013400B430399090319430162002318461E
:1009500004B0F0BDFF0F0000002C01400048014032
:1009600000440140FF8FFFFE8CFFFEFFFF8CFFFE67
:10097000F0DFFFFFFFFDFFFFFCF7FFFFF0B591B0D9
:1009800000260F960E960D960C960B960A960996D3
:100990000896079606960596049603960296019683
:1009A000009601252805C949CA680243CA60CA6879
:1009B0000240109210980868284308600868284090
:1009C00010901098049603200190102000900520AC
:1009D00000076946FFF758FD0F960E960D96A8077B
:1009E0000C90264C0CA92046FFF700FD6805E16835
:1009F0000143E1606F0320683842FCD02760F0209B
:100A000007900696089609960A960B9606A9204620
:100A1000FFF706FD2069A84320616807216981432B
:100A2000216117480168174A0A40174951180160A7
:100A30006069072188436061606970218843606153
:100A400061680420814361606168082291436160AC
:100A5000A1680E4A0A4029075118A160A16A014302
:100A60000B208143A16220683842FCD02760280314
:100A700061698143616111B0F0BDC046002401404D
:100A800008270140FFCF3F4A0030C0B4E8FFFF6FA6
:100A900080B588B0002106910591049103910291DF
:100AA00001918A48026802231A43026002681A40D0
:100AB0000792079A026801231A43026000681840EF
:100AC000079007980520000708228262059104918B
:100AD00003910293019201A9FFF7D6FC08B080BDF3
:100AE000F0B5A1B000271F971E971D971C971B9765
:100AF0001A9719971897179716971597149713978A
:100B000007A800903021FFF71AFC06970597049775
:100B1000039702970197012460046C4AD16801434E
:100B2000D1601BA908250D80D268024020921F9732
:100B30001E9703201D901C972098E74E3046FFF724
:100B400061FD3068802101433160B0692843B061A4
:100B500017976420169015971497189719971A9756
:100B60006020139013AA30462146FFF78DFDB0692F
:100B700004210143B1610099CF810F730797089752
:100B8000099712970C9760030B903046FFF7F2FC21
:100B90004E4A1068022108431060106808402090F7
:100BA0000691059702A892C02002019020984A4819
:100BB00001A9FFF769FC21B0F0BDC0460044014027
:100BC000F0B5A3B00026219620961F961E961D967E
:100BD0001C961B961A9619961896179616961596A1
:100BE00009A802903021FFF7AAFB089607960696FF
:100BF0000596049603960127FC02344AD0682043E8
:100C0000D0601DA932480880D068204022902196EB
:100C1000209663201F901E962298B74D2846FFF716
:100C2000F1FC28688021019108432860A8682949BF
:100C30000140A960A8692043A86119963220189044
:100C4000179616961A961B961C96602015901021E2
:100C500015AA2846FFF718FDB802A9698143A961C2
:100C600068687021884368600F20000569688143C7
:100C70006960A86801998843A8600299CE810E73C3
:100C80001496139612967806119010960F960E965B
:100C900078030D9009960A960B962846FFF76AFC92
:100CA00002200490094A1168014311601168014053
:100CB0002291089707960696059608200390229899
:100CC000054803A9FFF7E0FB23B0F0BD3410024054
:100CD000CF020000F8BFFEFF0004005010B5EFF394
:100CE000108272B6836A002B01D0591E8162002ADD
:100CF00000D162B60021002B0FD02C3000680028F4
:100D00000BD072B6837801248470002A00D162B6B9
:100D1000002B01D00830F1E70146084610BDF0B5C0
:100D2000EFF31082076B03463033002F0AD0CE78E2
:100D30000024002F0BD03D46FF78B7420DD26F68DC
:100D40002C46F6E700244C608C60C1620CE0002564
:100D50004D608C6005462C3502E04D608C60083596
:100D60002960002C00D0231D196072B6816A491CCD
:100D70008162002A00D0F0BD62B6F0BD4A688B687F
:100D8000002A02D093608B6800E0C362002B01D080
:100D9000181D00E0303002607047FEE71C48006814
:100DA0007047C0461B480178012905D10021017018
:100DB00001208006034908601548016801220A43A2
:100DC0000260704704ED00E00020C043704700005F
:100DD000B0B50025EC43002815D001460B4800684B
:100DE00001F0F8FB401E010E0DD1FF210906B14AAA
:100DF00013680B431360064906220A6048600548E1
:100E000005708D602C462046B0BDC0460000002015
:100E100010E000E050110020F0B581B0214A1068C8
:100E200002210843052398431060146807200440FA
:100E3000022CFAD101252E021B4A1446083C2768D1
:100E40003743276026687605FCD55668174F37402C
:100E5000174EBE1956602E062768374327602D07A8
:100E600056682E4356602568AD01FCD50F24240238
:100E70001568A543156014680C439C431460116801
:100E800038230B40102BFAD1000311688143116005
:100E9000084C2046FFF758FB2046FFF765FB01B0E2
:100EA000F0BDC04600200240081002408C80FF1FA9
:100EB000020800200090D003704700000648016A35
:100EC000012211430162016811430160D103426CA8
:100ED0000A4342647047C046004401400648016A24
:100EE00010220A4302620168012211430160D1030A
:100EF000426C0A4342647047002C0140B0B503467F
:100F000090070DD4EFF3108472B6986A05460D4031
:100F1000D2070DD1002D0DD002468A439A620AE015
:100F2000986A03460B40D20709D1002B09D0B0BD07
:100F30008D42F1D00020002CF9D162B6B0BD8B42B9
:100F4000F5D00020B0BD0000B0B5734A1546443559
:100F500000232C68002C07D02569A94209D3491B1E
:100F600025460C352346F4E700248360C460016104
:100F700006E08360C4600161A0602569691A21618F
:100F8000002B02D00C331A4600E044321060B0BD92
:100F9000B0B504461E4D2878002805D100F0A6F80B
:100FA000022801DB012028702878012804D120685C
:100FB0000021C94300F04CF9B0BDC04680B50068BF
:100FC00000F05AF980BDB0B505460024204600F077
:100FD00067F92860002801D00120B0BD052029460E
:100FE00000F086F92046B0BDB0B50446084D28781B
:100FF000002805D100F07AF8022801DB01202870D2
:101000002878012802D1206800F05CF9B0BDC04604
:101010006014002080B500F081F880BD80B50448E0
:101020000021044A00F0D6FD0349086080BDC04697
:10103000B1030008742800080801002082B01C4891
:1010400041680122114341604168114000910099BB
:10105000110702680A430260006808400190019885
:10106000FF20000613490A688243032080071018F6
:101070000860FFF7D1FEFFF70BFDFFF77FFCFFF7DE
:101080002FFDFFF79DFDFFF719FFFFF727FF00F08A
:1010900045F809480021094A00F09CFD084908600C
:1010A00000F024F8012801D100F04CF8FEE7C0461A
:1010B0003C10024020ED00E01D10000898280008B8
:1010C0000C01002080B501460520C043EFF30582E6
:1010D000002A00D080BDEFF31082002AFAD1024F1F
:1010E000084600DF80BDC046F91B000880B5EFF35D
:1010F0000580002807D1EFF31080002803D1EFF31B
:101100001480C00702D10448007A80BD014F00DF7F
:1011100080BDC046111C00080400002080B500F00E
:10112000EBF80520C043EFF30581002900D080BD16
:10113000EFF310810029FAD1014F00DF80BDC046D6
:101140001D1C000880B50520C043EFF30581002970
:1011500000D080BDEFF310810029FAD1014F00DFEC
:1011600080BDC046591D0008F8B50C460546EFF392
:101170000580002803D1EFF31080002822D003203F
:10118000C643002D25D02878FA2822D1002C20D063
:10119000002B1ED100922846FFF7A0FD002817D093
:1011A00007466A6A01460C312046FFF769F8009944
:1011B000002901D0F8780870FD60384600F05CFA2C
:1011C000002606E0044F2846214600DF064600E0E0
:1011D000761C3046F8BDC046DD1D0008F8B50E4649
:1011E0000446EFF30580002803D1EFF310800028B8
:1011F00023D00320C543002C26D02078FA2823D101
:10120000002E21D0002B1FD1009220460C3000F080
:10121000EEF8002817D00746626A0C303146FFF717
:101220002FF87E60BC600098F8700025BD70F92032
:101230003870384600F020FA06E0044F2046314668
:1012400000DF054600E06D1C2846F8BD6920000857
:1012500080B502460520C043EFF30583002B00D084
:1012600080BDEFF31083002BFAD1024F104600DF50
:1012700080BDC0461921000880B501460520C04345
:10128000EFF30582002A00D080BDEFF31082002A20
:10129000FAD1024F084600DF80BDC046AD210008EC
:1012A00080B501460020EFF30582002A00D080BD02
:1012B000EFF31082002AFAD1014F084600DF80BD0B
:1012C0006122000880B501460520C043EFF3058286
:1012D000002A00D080BDEFF31082002AFAD1024F1D
:1012E000084600DF80BDC046D1220008FEE7FEE7C9
:1012F00080B5FFF7FBFF80BD7047FCB503460020BB
:10130000002B35D0002933D0032A31D80090019228
:101310000F31072081439E68184608303546341A3D
:10132000426803271646BE43A41B8C4205D22E6892
:10133000002E2846F2D10098FCBD5C6864185C6001
:101340001E689B191E1F3668A64202D2083B5C60CD
:101350004268002A08D0BA431550019B194312185D
:1013600051600260104602E0019A1143416008306A
:10137000FCBD70B50022002820D000291ED00546F3
:1013800008350A46083A0723DC430023954206D075
:101390002E462D68002D3346F8D100220EE0241D84
:1013A0000D590326B5434668751B4560002B02D0D6
:1013B0001068186001E0002008510122104670BD3D
:1013C00010B50022002810D003460B435B070CD158
:1013D00018290AD30A18083A826000231360826829
:1013E0001024546012C043600122104610BDEFF378
:1013F000108200280CD0014672B64069002804D043
:1014000003684B614B685B1C4B60002A02D070473D
:101410000020704762B6704710B502460320C043F3
:10142000EFF31083002A0FD0D4688C420CD81469D3
:101430008C4209D972B65069086051615068401EEB
:1014400050600020002B00D010BD62B610BDB0B5BA
:1014500004460020002C17D0002915D0002A13D0F4
:10146000002B11D000200D4655435D192160271D2A
:101470002DC76361491E002904D09C181C60491EB9
:101480002346F8E718600120B0BDF8B5044680781F
:1014900000282DD0E56828462146FFF76FFC00267E
:1014A00026702F460C3738462146FFF7B5FFA8684F
:1014B000002842D03846FFF79AFF00283DD0044666
:1014C000284600F02FFA07463146324600F0D0FA9F
:1014D000384600F083FA074641686A6A20460C30B5
:1014E000FEF7CEFEA670F9202070B868E07025E007
:1014F000A568A868002821D0407883281ED12846F6
:1015000000F010FA074600263146324600F0B0FAE5
:10151000384600F063FA074640686A6A21460C3193
:10152000FEF7AEFEB868002801D0E17801702670A1
:101530000C3528462146FFF76FFFF8BD28462146A7
:10154000FFF7EDFBF8BD000080B50748826EC06E66
:10155000082100F0A9FC0146E948C16400200029E7
:1015600000D1C04380BDC046CC270008F8B5044672
:10157000002C1CD025466469E8780007F8D50027C0
:101580002F76A8680028F3D0284600F0CBF906464D
:1015900039463A4600F06CFA2F61EE60F06A6861F5
:1015A000002800D0056101202876F562E0E7F8BD4B
:1015B00070B5C27892071DD5C0682122825CC46ACA
:1015C00003462033E578AD070BD5A5688D4200D1E1
:1015D0008D68002D05D02026AD5756B2B54200DDEE
:1015E000EAB26469002CEDD11978914202D01A70E8
:1015F00000F0C4F970BD0000B0B5C14C5420205AB1
:1016000072B621465431498800290ED0491E56220F
:10161000A1525A21635A5A1C95B2854200D1002228
:101620009800E36D1858625200E0002062B600286E
:101630001DD00178F1390829E0D8C04679440979EC
:1016400049008F4405040804040B0E041100D5E77B
:10165000216E8847D2E7616E8847CFE7A16E884741
:10166000CCE7E16E8847C9E7216F8847C6E70020CD
:1016700000F0F8F8B0BDC046FEB50146EFF31083A8
:101680005422EA48825A72B604465434648894421A
:1016900012D258250195465BB7000D46C16D0295E3
:1016A000CD51611C5627C153761CB1B2914200D175
:1016B00000260299019D4653002B00D162B6944248
:1016C00005D2417A002906D001218172FEBD022097
:1016D000FFF70EFEFEBD0120000701490860FEBDB8
:1016E00004ED00E0B0B5012141702023C456DF496C
:1016F0001C310A468968002907D0CD56A542F8DC7E
:101700008160C26090600C3104E000218160C260A1
:10171000083211460860B0BDB0B54A1C0ED0D34B9C
:101720001D462C3500242A68002A1BD0D569A94201
:1017300020D3491B154610351446F4E7F44A1346E6
:101740003033002421461C6823461033002CF9D185
:10175000002303614161DB43C361002915D01031CF
:101760000A461CE0C16102614461002C0AD01034B9
:10177000224614E002614461C161002C07D010349C
:10178000234605E02C331A4609E0303207E02C33BB
:101790001860002A04D0D369591AD161143210603C
:1017A000B0BDC0460169C269531C0CD0002904D0E9
:1017B00043694B61CB699A18CA614269002A09D111
:1017C000DB4AD16209E0002901D042694A614269DD
:1017D000002A05D00023436111610021C1617047D7
:1017E000D34A1163F9E7C046B0B5F64DEC6A002C58
:1017F00003D0E069401EE06103D0B0BDE06900287D
:1018000018D1607813380421C841042808D1204633
:101810000178F12901D1C068FAE72146FFF7C8FE37
:10182000204600F09FF8204600F0CEF82469002CF6
:10183000E4D101E000206061EC62B0BD80B5C17808
:10184000C90702D100F034F880BD0021C160042135
:101850004170F1494A6B8260002A00D0D060486331
:1018600080BDC04670B50546EB4E7469307A002DD8
:101870000AD0022804D1202021562856884210DCA4
:10188000284600F0A1F870BD0228FCD1756A002D31
:10189000F9D02020215628568842F4DD284600F051
:1018A00061F82046FFF71EFFB5610220687070BD29
:1018B00010B5044600202080A07881070DD5C00611
:1018C00005D4216BD448406FFFF753FD05E0842019
:1018D000D1490858216BFFF79FFDA078C0070DD0B4
:1018E0008820CD490858002803D02146FFF794FDF1
:1018F00010BD802008582146FFF73BFD10BDC046B3
:101900000400002010B504468069002803D000219F
:101910000A4600F0ADF86078232802D1A0680021C3
:10192000816110BD0146806882688A60002A00D00B
:10193000D1600021C1607047B0B52023CC5602466B
:101940008068002807D0C556A542F8DA8860CA60CA
:1019500091600C3004E000208860CA6008321046B4
:101960000160B0BDC168002907D082688A608268C2
:10197000002A00D0D1600021C1607047B0B5044694
:101980000546002D0BD02878F12801D1ED68F8E745
:101990002046FFF7E7FF28462146FFF7CDFFB0BD01
:1019A00010B50446407833280CD12320225C616AAC
:1019B0002046FFF7A3FA002804D001460022204663
:1019C00000F056F810BD000080B5014601204870B7
:1019D000DF481C30FFF7B0FF80BDC046806B203071
:1019E00070470000F8B5FB4EB26D0C48002421464C
:1019F00000F0F2FCF54FB862716E012500290AD0A3
:101A00008847002808D1F96CF26D306E00F0E4FCD4
:101A1000B864002800D02C462046F8BDEF1200081C
:101A2000EA498861022141707047C04604000020E5
:101A300010B50246E54C237A0020022B14D1636ACC
:101A4000002B11D060694270FFF766FE606A816802
:101A50006162002902D022461C32CA600221417014
:101A60000021C160A061012010BDC046040000201B
:101A7000B0B515460446806B01622046FFF792FE22
:101A80002046002D02D0FFF7EDFEB0BDFFF79CFF12
:101A9000B0BD0000B0B5FFF781F9CC4DE868401C3F
:101AA000E860FFF7A1FE0020FFF7DCFE286D0028AC
:101AB00000D08047296C002910D0A869EA6B9042B9
:101AC00006D0E863C269002A05D1C1610A4602E076
:101AD000C269002A03D0511EC16100D0B0BD297A6D
:101AE0000229FBD16C6A002CF8D02021405C615C9B
:101AF0008142F3D12046FFF735FFE86BFFF764FF23
:101B00002046FFF78DFFEC63286CE061B0BDC04656
:101B10000400002010B50024FFF716FD002801D0B6
:101B2000E44302E0DF4803490165204610BDC0469A
:101B300004000020551B000882B004460022D34355
:101B400069462046FFF710FB0028F7D1019800995D
:101B50008847F3E7F8B5D34D6C6C002C30D0206982
:101B6000401E20616E69002C29D02069002826D1F2
:101B7000E068002801D0A16881606864E86C2146B3
:101B8000183100221346FFF729FB00280BD06F699C
:101B9000A869686103202146FFF7AAFB77406869BE
:101BA000384300D10646E078012804D16169204617
:101BB000FFF7CAF901E0012060706C6CD3E76E6139
:101BC000F8BDC04604000020014F00DFFEE7C0461C
:101BD0008D230008D0B503460020EFF30584002CC8
:101BE00000D0D0BDEFF31084002CFAD1014F18467D
:101BF00000DFD0BDD923000880B5002805D00146FC
:101C00001320FFF715FF401E80BD0320C04380BD99
:101C1000A448007A7047C04604000020F8B5A14CE3
:101C2000217A0020002905D0012900D18EE0002072
:101C3000C043F8BD0090674F388A54216052204657
:101C40005430B968FA6882602164FD6A396B2846AD
:101C5000FFF7B6FB002801D0802025507D69B969C7
:101C60003C4A2846904726467436002800D1F5683D
:101C70006567FD69396A2846364A9047002800D1D1
:101C8000F568A5677D6AB96A2846324A90470028F8
:101C900000D1F568E5677D6B002D07D0AA68EB6879
:101CA00029682846FFF7D3FB84202550BD6B002D03
:101CB00007D0AA68EB6829682846FFF7C8FB882088
:101CC0002550FD6B002D07D0AA68EB6829682846CF
:101CD000FFF7BDFB8C2025503D6C002D07D0AA6876
:101CE000EB6829682846FFF7B2FB902025507D6CF1
:101CF000002D07D0AA68EB6829682846FFF7A7FBE4
:101D000094202550BD6C002D07D0AA68EB68296887
:101D10002846FFF79CFB98202550FD6C002D07D02E
:101D2000AA68EB6829682846FFF791FB9C2025509C
:101D30003D6D002D07D0AA68EB6829682846FFF79B
:101D400086FBA0202550012020720098F8BDC046D7
:101D500004000020C1130008F8B50025EC43ED4E47
:101D6000307A012830D1FFF73DFE00282CD0FF202B
:101D7000000417494A6802434A6048680A68400CF0
:101D8000800610430860134F78681349FFF720F866
:101D9000002819D1FFF718F83061FFF703F8304633
:101DA0001C30FFF7BFFDFFF73BFE3878C00703D1BB
:101DB000032080F3148802E0022080F31488BFF32C
:101DC0006F8F022030722C462046F8BD04000020A0
:101DD0001CED00E0CC2700086D020008F8B50446B1
:101DE0000320C543002C5AD02078FA2857D10F463B
:101DF000002954D01E4600922046FEF76FFF0028AF
:101E00003DD0014620460D46FEF7B8FF626A2946DE
:101E10000C313846FEF734FA2946009A002A01D0E0
:101E2000C878107000250D7026460C363046FFF736
:101E3000F3FAA068002832D03046FFF7D8FA00281D
:101E40002DD006462046FFF76DFD074600250122EE
:101E50002946FFF70DFE3846FFF7C0FD07464168EB
:101E6000626A30460C30FEF70BFAB570F92030701C
:101E7000B868F07020463146FEF751FF0FE0002EA3
:101E80000CD083203146FFF7D3FDAD1C002806D0CF
:101E9000F24841692046FFF74FFD00E06D1C2846DF
:101EA000F8BDC04604000020F0B585B0002600282B
:101EB00000D1CCE0002900D1C9E0430803439C08CD
:101EC0001C43230923431C0A1C43230C2343DC43E8
:101ED0006308604D2B40E31A04965F4E9D08334023
:101EE00035405B191D095D195C4B1D405C4B5D4322
:101EF0002D0E4C080C430346A70827433C093C43DE
:101F0000270A27433C0C3C43E443670851480740F9
:101F1000E41BA70834403740049EE0190409001967
:101F20004E4C20404E4C6043000E4019202800D2F9
:101F30008DE004910C460F3403208443184660431F
:101F4000002A1F46029012D01369506996681168E2
:101F500003913146002E15D03D4600260F468907D5
:101F600075D10197D16834292F4670D310E0002332
:101F700003931E46A020D5490858002811D0FFF72A
:101F800036FA14E00191D168002901D000265EE004
:101F9000002B37D00026990759D10299884233D2B5
:101FA00055E08020085834210122FFF7A6F90125C9
:101FB0003346002B17D1002815D000950190F24828
:101FC000C06F0026029D29463246FFF796F9034668
:101FD00000280AD0184629461E46FEF7AEF93346B9
:101FE000019E009D1BE006461AE0FA49009D002D67
:101FF00015D00293A020085800280AD00199FFF7B5
:102000000BFA0BE00028C1D1002501980028D0D19F
:10201000AFE7802008580199FFF7ABF9029BAD1C90
:10202000002E14D0002004997162B062F062306317
:1020300003997160B060B570FA20307030460C3092
:1020400039462246FFF703FAE2480649016730465F
:1020500005B0F0BD55555555333333330F0F0F0FC2
:10206000010101018B140008F8B505460320C443A3
:10207000002D3BD02878FA2838D10F46002935D0DA
:102080001E460092A86800281AD04078832817D1ED
:102090002846FFF747FC0646002401222146FFF7A9
:1020A000E7FC3046FFF79AFC064640686A6A394604
:1020B000FEF7E6F8B068002818D00099017015E026
:1020C00028460C30FFF793F9002811D06A6A0646BB
:1020D0000C303946FEF7D4F80098F0700024B47044
:1020E000F920307028463146FEF719FE2046F8BD2B
:1020F000002E0CD093203146FFF79AFCA41C002838
:10210000F4D0B44841692846FFF716FCEEE7641C9A
:10211000ECE7C04604000020F8B50546AD48466926
:102120000320C443002E29D0002D28D02878F5287C
:1021300025D1287E002824D00F46E978CA0702D08E
:10214000EA68B24229D0002F29D088070AD5202278
:10215000B156E86882568A4204DA0246203211708B
:10216000FFF70CFC53203946FFF762FCA41C002843
:1021700005D028463146FFF7DFFB00E0E41C20468F
:10218000F8BD00242C61EE60F06A6861002800D080
:10219000056101202876F562F1E7FF2801D1641C72
:1021A000EDE7401C28760024E9E7C046F8B505466F
:1021B0000320C443002D4FD02878F5284CD1287E29
:1021C000002836D06B69E868002B01D029691961B5
:1021D0000146203102462C322E69002E174601D0CE
:1021E000143637463B604B781268002A0DD0D678FB
:1021F000B60708D59668002E05D02027F6575FB29F
:10220000BE4200DDF3B21432EEE70A789A420AD0F9
:102210000B70FFF7B3FB06E02846FFF783FB611C5A
:102220000022FFF725FCA8680028F5D10020FFF761
:1022300019FB00242C70A878C0070DD09420DF492A
:102240000858002803D02946FFF7E6F804E080206C
:1022500008582946FFF78DF82046F8BD04000020F5
:1022600070B500280BD0066845688468002C10D033
:10227000A10711D1C16800201C2919D270BD002509
:102280002E469420CD490858002807D0FFF7AFF814
:102290000AE0C0680028F4D0002070BD80200858F3
:1022A0001C210122FFF729F8044600280BD0012049
:1022B0006660E570A070F52020702046083011217E
:1022C000FEF73DF800E00024204670BD0400002029
:1022D00070B504460320C543B8484069002811D0B2
:1022E000002C10D02178F5290DD16D1C217E0029FC
:1022F00009D0E268824206D1491E2176090604D03F
:10230000002500E0ED1C284670BD6269002A01D05E
:1023100021691161014620312C302369002B0546CB
:1023200001D014331D462A604A78006800280ED078
:10233000C3789B0709D58368002B06D020255B57FF
:1023400055B2AB4200DC13461A461430EDE70A7072
:10235000A068002812D02046FFF7E4FA05460026C0
:1023600031463246FFF784FB2661E560E86A60612A
:10237000002800D0046101202076EC620025284668
:10238000FFF770FABFE7C04604000020B0B58B4DE0
:10239000287A02281DD1686A00281AD06C69E06A80
:1023A000FFF7E4F82046FFF7ADFA686A81686962D2
:1023B000002902D02A461C32CA6002214170002145
:1023C000C160A861EFF30980A06369612046FFF74F
:1023D00035FAB0BD04000020F0B587B000282AD03F
:1023E000059006910125002A11D01469516993695D
:1023F000176850689668002E0490039718D000273D
:10240000B00700D0CBE0D068442816D2C7E018202F
:102410000290002004460746049003902A46019249
:1024200088206649085800281AD0FEF7E0FF1DE012
:10243000D068002801D00027B1E0002C06D000278A
:10244000600700D0ABE0002900D1A8E0002B4AD003
:102450000027012B00DAA2E00293382B45DD9EE035
:102460008020085844210122FEF747FF064601223A
:1024700000253946002C16D1002E14D001980028D2
:1024800014D084204D4908584D49496D00280DD07D
:1024900017460191FEF7ABFF002815D004463A46D7
:1024A0001032374639E03746104639E0009243484B
:1024B000406F00220191FEF720FF002804D004465F
:1024C00037460199009A29E0002D03D000221446D6
:1024D000174622E0882039490858002815D031468F
:1024E000FEF79AFF16E0182002904A424A4100295E
:1024F00006D00027480752D1482950D300294ED48E
:10250000002E59D001920022B4E7802008583146AD
:10251000FEF72FFF002401222746019902201043D5
:10252000002F3CD03D462035039A7A60049AFA7019
:10253000B870FF20F2303880384608300E46182137
:10254000FDF7FDFEFD20A8700298687028703846DF
:1025500023300D21FDF7F1FEA01940383C637E6366
:10256000B863059DFD631748206015480078400753
:1025700018D4B86B0021069B342903D000224250A6
:10258000091DF9E785631149416303620B49104A4C
:102590000A6601210906C1633846FFF763F9384628
:1025A00007B0F0BD3146201DB1081139064A002997
:1025B000DFD004C0491EFAE70F4630E704000020D0
:1025C000CC270008A52E5AE2CCCCCCCCC91B0008E5
:1025D000A119000843088B421AD3002203098B4239
:1025E00079D3030A8B425ED3030B8B4242D3030C95
:1025F0008B4227D30902FF2212BA030C8B4202D36B
:102600001212090203D0030B8B4233D31AE0D3E03A
:10261000411A8041401C704703460B4371D4430864
:102620008B42F5D3002203098B4254D3030A8B4219
:1026300039D3030B8B421DD3030C8B4202D3944638
:102640006EE0090AC30B8B4201D3CB03C01A52417F
:10265000830B8B4201D38B03C01A5241430B8B4235
:1026600001D34B03C01A5241030B8B4201D30B031E
:10267000C01A5241C30A8B4201D3CB02C01A524145
:10268000830A8B4201D38B02C01A5241430A8B4208
:1026900001D34B02C01A5241030A8B4201D30B02F1
:1026A000C01A5241CDD2C3098B4201D3CB01C01A0B
:1026B000524183098B4201D38B01C01A5241430915
:1026C0008B4201D34B01C01A524103098B4201D303
:1026D0000B01C01A5241C3088B4201D3CB00C01A70
:1026E000524183088B4201D38B00C01A52414308E8
:1026F0008B4201D34B00C01A5241411A5241100083
:102700007047CA0F00D04942031000D340425340E3
:1027100000229C4603098B422DD3030A8B4212D31D
:102720008901FC2212BA030A8B420CD3890192114F
:102730008B4208D3890192118B4204D3890137D08F
:10274000921100E08909C3098B4201D3CB01C01A61
:10275000524183098B4201D38B01C01A5241430974
:102760008B4201D34B01C01A524103098B4201D362
:102770000B01C01A5241C3088B4201D3CB00C01ACF
:10278000524183088B4201D38B00C01A5241D9D2E7
:1027900043088B4201D34B00C01A5241411A00D268
:1027A00001465241104663465B1000D340427047D9
:1027B00063465B1000D3404201B50021004201D0C6
:1027C000C9430846C046C04602BD000001000000E3
:1027D000E8030000050000001001002010000000C8
:1027E00000000000000000000000000000000000E9
:1027F0000000000000000000500100200010000058
:1028000000000000000000000000000000000000C8
:1028100000000000000000000000000000000000B8
:1028200000010000C0280008FC280008391B00082F
:10283000151B0008E428000804000000D81100203F
:1028400060120020000000000000000000000000F6
:102850000000000000000000000000000000000078
:1028600000000000000000000000000054110020E3
:10287000881100202029000800000000000000004E
:1028800000000000000000008000000018000000B0
:1028900000000000000000002829000800000000DF
:1028A0000000000000000000000000000001000027
:1028B0001800000000000000000000000000000000
:1028C0000000000000000000D811002044000000BB
:1028D0006012002000010000010000000000000064
:1028E0000000000000000000000000005411002063
:1028F000340000008811002050000000000000009B
:10290000000000001C1200204400000060130020A2
:10291000000100002800000000000000000000008E
:102920004C45445F50574D006170705F6D61696E3A
:10293000000000005254582056352E352E34000029
:102940006029000800000020A80000000401000821
:10295000082A0008A8000020C01900002001000873
:102960000024F40034290008D4B3FB020000000066
:102970000000000000000000000000000000000057
:102980000000000000000000000000000000000047
:102990000000000000000000000000000000000037
:1029A0000000000000000000000000000000000027
:1029B0000000000000000000000000000000000017
:1029C0000000000000000000000000000000000007
:1029D00000000000000000000000000000000000F7
:1029E00000000000000000000000000000000000E7
:1029F00000000000000000000000000000000000D7
:082A00000000000000000000CE
:04000005080000C12E
:00000001FF
