:020000040800F2
:100000006806002065010008610B0008470200082F
:1000100000000000000000000000000000000000E0
:10002000000000000000000000000000650B000858
:100030000000000000000000630B0008670B0008D0
:100040007701000800000000770100087701000830
:1000500077010008770100087701000877010008A0
:100060000000000077010008770100087701000810
:100070007701000877010008770100080000000000
:100080007701000800000000000000007701000870
:1000900000000000770100087701000877010008E0
:1000A0007701000877010008770100087701000850
:1000B00077010008000000000000000000000000C0
:1000C00000F002F800F03EF80CA030C80838241800
:1000D0002D18671EA246AB4654465D46AC4201D180
:1000E00000F030F87E460F3EB6460FCC0126334274
:1000F00000D0FB1A3343A246AB461847BC0D0000A4
:10010000DC0D0000103A02D378C878C1FAD8520743
:1001100001D330C830C101D504680C6070470000BD
:100120000023002400250026103A01D378C1FBD813
:10013000520700D330C100D50B6070471FB51FBDFB
:1001400010B510BD00F04DF81146FFF7F7FF00F0B5
:100150007DFD00F065F803B4FFF7F2FF03BC00F08B
:100160006BF800000748804707480047FEE7FEE7B6
:10017000FEE7FEE7FEE7FEE704480549054A064BB1
:1001800070470000090C0008C1000008680000204A
:1001900068060020680200206802002001E004C018
:1001A000091F0429FBD28B0701D50280801CC907D7
:1001B00000D00270704700290BD0C30702D0027034
:1001C000401C491E022904D3830702D50280801CEB
:1001D000891EE3E70022EEE70022DFE77047704761
:1001E0007047754600F024F8AE4605006946534650
:1001F000C008C000854618B020B5FFF7BDFF60BC41
:10020000B64600260027C0C5C0C5C0C5C0C5C0C50C
:10021000C0C5C0C5C0C5403D490849008D467047AE
:1002200010B50446C046C0462046FFF794FF10BDF7
:10023000004870470800002001491820ABBEFEE7C7
:10024000260002007047FEE78268D20712D1C2681A
:10025000094B13404A681A438B681343CA681A4310
:10026000C26003229207036993430968194301613D
:100270000020704701207047C73FFFFFF0B5C268FC
:10028000C2688268D20713D101225305C268920264
:10029000134A0FD54C68F02C0CD1C46814400D687B
:1002A00025430E460C3654CE2A43224332430CE0FB
:1002B0000120F0BDC46814400D6825430F4608377F
:1002C000D4CF2A43224332433A43C260C468002257
:1002D0001C4203D04968836A0B4383621046F0BD19
:1002E0003CC2FEFFF0B581B00B68002B56D006462D
:1002F000002219E0374671696443644361430F2665
:100300006643446AB44306460C4339464462084691
:1003100049684B4331682940194331600146521CFA
:100320000B681C46D44039D0012494401C40F6D0C0
:1003300048680090431E012B0FD8234663438D6805
:100340005D4303275F43B368BB432B43B360CB6874
:1003500063437568A5431D437560234663430D6978
:100360005D4303275F433046F668BE432E43C660B5
:100370000646FD43009F022FC9D10E46240AB9D17B
:1003800019465943374674694C430F264E43016A58
:10039000B1430646214301623946B8E7002001B067
:1003A000F0BD000080B57D21C90000F089FC401E31
:1003B00003494860002088600520086080BDC04671
:1003C00010E000E0014908607047C04600000020CE
:1003D000F0B5CA6A1B4B1340012214074D69A543AF
:1003E0001D438B692B4370C9174F2F40174D354064
:1003F0000E782E433E43164D254035434C68154E2E
:1004000026402E434D88144C2C4034431C43E94B6A
:100410000C39984201D0234611E0104B1C40232395
:100420001E06CD690B6A4F6A896AB74327431124B8
:100430006406A5433D43520793432B430B43436458
:100440000020F0BDFFFFF0EFFF87F0EFFF83F0EF3C
:10045000FF8FF0EFFFBFF0EFFF9F0000FFFF0FDC0B
:1004600010B50468D34A904202D01B4B984204D185
:1004700070239C434B68234300E02346174CA04263
:1004800008DD90420CD0CC4CA04209D0CB4CA0420D
:1004900006D01FE0104CA04202D0114CA04219D14E
:1004A00003242402A343CC681C4304608B68C3620A
:1004B0000B888362904205D0BF4A904202D0BF4A67
:1004C000904201D109690163416901220A434261F5
:1004D000002010BD1C46E8E700040040FF2B01404F
:1004E00000200040F0B584B00123B14CA1424DDCA6
:1004F000012900D182E0102900D1D2E00124240298
:10050000A14200D051E1016AA1430162B049491CF6
:1005100013691B020B40032102910902046A8C43F8
:100520001C431168039153681B0223434568C46947
:10053000A04FB84205D0A04FB84202D09F4FB8425A
:1005400019D102990F03BD43566901969669D7697F
:10055000009737019D4E3E402E43009D6D0135436F
:1005600089028B439B49091D019EB6020E401E4322
:1005700091688B023343456092490C4003990C43C8
:10058000C461D168C163036200230EE10124250325
:10059000A9426CD02504A94200D1C1E02505A94299
:1005A00000D002E1016AA9430162016A166853683A
:1005B00003931569476D7F4B984205D07E4B984257
:1005C00002D07E4B984206D1A30444689C439369B1
:1005D0009B02234343607A4B1F4033023B434365F6
:1005E000D268C2650322120591436A0852050A4384
:1005F00003990905114301620023D6E00126F14366
:10060000036A0B40036213690B40046A0327BC436F
:100610001C43116803915168214345688469654B07
:10062000984205D0644B984202D0644B984213D153
:100630003B029D437302566902969769D6699F43B0
:100640002F4375003D430C239943029B5B08DB005D
:100650000B4391688900194345605A4B1C40039B2A
:100660001C438461D2684263016200239DE0016AF9
:10067000A9430162016A43681668556803951569C4
:100680000295C7694B4DA84205D04B4DA84202D0F8
:10069000EB4DA84272D1A403A3439469A4011C4367
:1006A0006DE0016A102399430162016A3023994386
:1006B00013695B085C010C43176851680901214309
:1006C000456883693B4EB04205D03B4EB04202D0F4
:1006D000DB4EB04219D10326B602B54354690394E8
:1006E0003E469769D4690294BF003A4C3C40374675
:1006F0002C43029DED002543C024A143039C6408C4
:10070000E4010C4391688901214345602E4C23404C
:100710003C021C438461D26882630162002344E08E
:10072000284D7335016A29400162016A16685368D1
:1007300003931469476D1F4B984205D01E4B984296
:1007400002D0BF4B984205D143682B4095692D02DA
:100750001D4345601B4BDB1C1F4037434765836DC2
:10076000D2688265032212049143620852040A434C
:100770000399090411430162002316E01C464460FA
:10078000114B1F4033023B43C361D2680264032212
:10079000120391430D4A1032029B1B0313400B437B
:1007A00003990903194301620023184604B0F0BD00
:1007B000FF0F0000002C01400048014000440140B0
:1007C000FF8FFFFE8CFFFEFFFF8CFFFEF0DFFFFFC1
:1007D000FFFDFFFFFCF7FFFF81B008490A680092A8
:1007E000401C01D30020C043009A002804D00A68AE
:1007F000D203D2171018FAD101B0704710E000E010
:10080000F0B591B000260F960E960D960C960B96AD
:100810000A960996089607960696059604960396F4
:1008200002960196009601252805C949CA68024327
:10083000CA60CA680240109210980868284308608D
:10084000086828401090109804960320019010200A
:100850000090052000076946FFF744FD0F960E96AD
:100860000D96A8070C90264C0CA92046FFF7ECFC2F
:100870006805E1680143E1606F0320683842FCD0FD
:100880002760F02007900696089609960A960B9620
:1008900006A92046FFF7F2FC2069A84320616807FB
:1008A00021698143216117480168174A0A401749A5
:1008B0005118016060690721884360616069702197
:1008C0008843606161680420814361606168082237
:1008D00091436160A1680E4A0A4029075118A1603E
:1008E000A16A01430B208143A16220683842FCD0F9
:1008F0002760280361698143616111B0F0BDC04682
:100900000024014008270140FFCF3F4A0030C0B417
:10091000E8FFFF6F80B588B0002106910591049132
:100920000391029101918A48026802231A430260EE
:1009300002681A400792079A026801231A4302606C
:100940000068184007900798052000070822826277
:100950000591049103910293019201A9FFF7C2FC52
:1009600008B080BDF0B5A1B000271F971E971D9756
:100970001C971B971A9719971897179716971597FB
:100980001497139707A800903021FFF725FC0697CE
:1009900005970497039702970197012460046C4A16
:1009A000D1680143D1601BA908250D80D26802409F
:1009B00020921F971E9703201D901C9720989A4EF7
:1009C0003046FFF74DFD3068802101433160B0694A
:1009D0002843B061179764201690159714971897BD
:1009E00019971A976020139013AA30462146FFF7F3
:1009F00079FDB06904210143B1610099CF810F7382
:100A000007970897099712970C9760030B90304649
:100A1000FFF7DEFC4E4A10680221084310601068A0
:100A2000084020900691059702A892C020020190EC
:100A300020984A4801A9FFF755FC21B0F0BDC046F7
:100A400000440140F0B5A3B00026219620961F96E1
:100A50001E961D961C961B961A9619961896179612
:100A60001696159609A802903021FFF7B5FB089657
:100A7000079606960596049603960127FC02344ACB
:100A8000D0682043D0601DA932480880D06820403B
:100A900022902196209663201F901E9622986A4DE0
:100AA0002846FFF7DDFC2868802101910843286073
:100AB000A86829490140A960A8692043A86119963E
:100AC00032201890179616961A961B961C96602040
:100AD0001590102115AA2846FFF704FDB802A96950
:100AE0008143A96168687021884368600F20000510
:100AF000696881436960A86801998843A860029980
:100B0000CE810E7314961396129678061190109655
:100B10000F960E9678030D9009960A960B96284626
:100B2000FFF756FC02200490094A11680143116046
:100B300011680140229108970796069605960820AD
:100B400003902298054803A9FFF7CCFB23B0F0BD22
:100B500034100240CF020000F8BFFEFF0004005036
:100B6000FEE7704770477047F0B581B0214A1068C2
:100B700002210843052398431060146807200440AD
:100B8000022CFAD101252E021B4A1446083C276884
:100B90003743276026687605FCD55668174F3740DF
:100BA000174EBE1956602E062768374327602D075B
:100BB00056682E4356602568AD01FCD50F242402EB
:100BC0001568A543156014680C439C4314601168B4
:100BD00038230B40102BFAD10003116881431160B8
:100BE000084C2046FFF7DEFB2046FFF7EBFB01B089
:100BF000F0BDC04600200240081002408C80FF1F5C
:100C0000020800200090D003704700000648016AE7
:100C1000012211430162016811430160D103426C5A
:100C20000A4342647047C046004401400648016AD6
:100C300010220A4302620168012211430160D103BC
:100C4000426C0A4342647047002C014082B019484C
:100C500041680122114341604168114000910099AF
:100C6000110702680A430260006808400190019879
:100C7000FF20000610490A688243032080071018ED
:100C80000860FFF771FFFFF745FEFFF7B9FDFFF7BB
:100C900069FEFFF7D7FEFFF7B9FFFFF7C7FF074C65
:100CA000002525606420FFF797FD6D1C322DF8D1DB
:100CB000F6E7C0463C10024020ED00E0342C014035
:100CC00043088B421AD3002203098B4279D3030ACB
:100CD0008B425ED3030B8B4242D3030C8B4227D350
:100CE0000902FF2212BA030C8B4202D3121209022C
:100CF00003D0030B8B4233D31AE0D3E0411A804177
:100D0000401C704703460B4371D443088B42F5D314
:100D1000002203098B4254D3030A8B4239D3030BBD
:100D20008B421DD3030C8B4202D394466EE0090A1A
:100D3000C30B8B4201D3CB03C01A5241830B8B42AE
:100D400001D38B03C01A5241430B8B4201D34B0397
:100D5000C01A5241030B8B4201D30B03C01A5241FC
:100D6000C30A8B4201D3CB02C01A5241830A8B4281
:100D700001D38B02C01A5241430A8B4201D34B026A
:100D8000C01A5241030A8B4201D30B02C01A5241CE
:100D9000CDD2C3098B4201D3CB01C01A5241830982
:100DA0008B4201D38B01C01A524143098B4201D3BC
:100DB0004B01C01A524103098B4201D30B01C01AE7
:100DC0005241C3088B4201D3CB00C01A5241830861
:100DD0008B4201D38B00C01A524143088B4201D38E
:100DE0004B00C01A5241411A524110007047CA0FBD
:100DF00000D04942031000D34042534000229C4699
:100E000003098B422DD3030A8B4212D38901FC22A2
:100E100012BA030A8B420CD3890192118B4208D378
:100E2000890192118B4204D3890137D0921100E0DD
:100E30008909C3098B4201D3CB01C01A52418309EE
:100E40008B4201D38B01C01A524143098B4201D31B
:100E50004B01C01A524103098B4201D30B01C01A46
:100E60005241C3088B4201D3CB00C01A52418308C0
:100E70008B4201D38B00C01A5241D9D243088B4216
:100E800001D34B00C01A5241411A00D201465241CF
:100E9000104663465B1000D34042704763465B10C8
:100EA00000D3404201B50021004201D0C9430846A9
:100EB000C046C04602BD0000D80E00080000002059
:100EC0000800000004010008E00E000808000020EF
:100ED00060060000200100080024F400000000006B
:04000005080000C12E
:00000001FF
